{
  "_format": "hh-sol-artifact-1",
  "contractName": "AiOracle",
  "sourceName": "contracts/AiOracle.sol",
  "abi": [
    {
      "inputs": [
        {
          "internalType": "address",
          "name": "_aiToken",
          "type": "address"
        },
        {
          "internalType": "address",
          "name": "_oracleNode",
          "type": "address"
        }
      ],
      "stateMutability": "nonpayable",
      "type": "constructor"
    },
    {
      "inputs": [
        {
          "internalType": "address",
          "name": "owner",
          "type": "address"
        }
      ],
      "name": "OwnableInvalidOwner",
      "type": "error"
    },
    {
      "inputs": [
        {
          "internalType": "address",
          "name": "account",
          "type": "address"
        }
      ],
      "name": "OwnableUnauthorizedAccount",
      "type": "error"
    },
    {
      "anonymous": false,
      "inputs": [
        {
          "indexed": false,
          "internalType": "uint256",
          "name": "requestId",
          "type": "uint256"
        },
        {
          "indexed": false,
          "internalType": "address",
          "name": "requester",
          "type": "address"
        },
        {
          "indexed": false,
          "internalType": "bytes",
          "name": "data",
          "type": "bytes"
        }
      ],
      "name": "AiResponseReceived",
      "type": "event"
    },
    {
      "anonymous": false,
      "inputs": [
        {
          "indexed": true,
          "internalType": "address",
          "name": "previousOwner",
          "type": "address"
        },
        {
          "indexed": true,
          "internalType": "address",
          "name": "newOwner",
          "type": "address"
        }
      ],
      "name": "OwnershipTransferred",
      "type": "event"
    },
    {
      "anonymous": false,
      "inputs": [
        {
          "indexed": false,
          "internalType": "uint256",
          "name": "requestId",
          "type": "uint256"
        },
        {
          "indexed": false,
          "internalType": "address",
          "name": "requester",
          "type": "address"
        },
        {
          "indexed": false,
          "internalType": "string",
          "name": "model",
          "type": "string"
        },
        {
          "indexed": false,
          "internalType": "string",
          "name": "prompt",
          "type": "string"
        },
        {
          "indexed": false,
          "internalType": "string",
          "name": "responseAbi",
          "type": "string"
        }
      ],
      "name": "RequestAiResponse",
      "type": "event"
    },
    {
      "inputs": [],
      "name": "aiToken",
      "outputs": [
        {
          "internalType": "contract IERC20",
          "name": "",
          "type": "address"
        }
      ],
      "stateMutability": "view",
      "type": "function"
    },
    {
      "inputs": [
        {
          "internalType": "string",
          "name": "model",
          "type": "string"
        },
        {
          "internalType": "string",
          "name": "prompt",
          "type": "string"
        },
        {
          "internalType": "string",
          "name": "responseAbi",
          "type": "string"
        }
      ],
      "name": "ask",
      "outputs": [
        {
          "internalType": "uint256",
          "name": "",
          "type": "uint256"
        }
      ],
      "stateMutability": "nonpayable",
      "type": "function"
    },
    {
      "inputs": [
        {
          "internalType": "uint256[]",
          "name": "requestIds",
          "type": "uint256[]"
        },
        {
          "internalType": "bytes[]",
          "name": "data",
          "type": "bytes[]"
        }
      ],
      "name": "batchFulfill",
      "outputs": [],
      "stateMutability": "nonpayable",
      "type": "function"
    },
    {
      "inputs": [
        {
          "internalType": "uint256",
          "name": "requestId",
          "type": "uint256"
        },
        {
          "internalType": "bytes",
          "name": "data",
          "type": "bytes"
        }
      ],
      "name": "fulfill",
      "outputs": [],
      "stateMutability": "nonpayable",
      "type": "function"
    },
    {
      "inputs": [
        {
          "internalType": "uint256",
          "name": "offset",
          "type": "uint256"
        },
        {
          "internalType": "uint256",
          "name": "limit",
          "type": "uint256"
        }
      ],
      "name": "getPendingRequests",
      "outputs": [
        {
          "components": [
            {
              "internalType": "uint256",
              "name": "id",
              "type": "uint256"
            },
            {
              "internalType": "address",
              "name": "requester",
              "type": "address"
            },
            {
              "internalType": "string",
              "name": "model",
              "type": "string"
            },
            {
              "internalType": "string",
              "name": "prompt",
              "type": "string"
            },
            {
              "internalType": "string",
              "name": "responseAbi",
              "type": "string"
            }
          ],
          "internalType": "struct IAiOracle.Request[]",
          "name": "",
          "type": "tuple[]"
        }
      ],
      "stateMutability": "view",
      "type": "function"
    },
    {
      "inputs": [
        {
          "internalType": "string",
          "name": "",
          "type": "string"
        }
      ],
      "name": "isModelSupported",
      "outputs": [
        {
          "internalType": "bool",
          "name": "",
          "type": "bool"
        }
      ],
      "stateMutability": "view",
      "type": "function"
    },
    {
      "inputs": [
        {
          "internalType": "string",
          "name": "",
          "type": "string"
        }
      ],
      "name": "modelFees",
      "outputs": [
        {
          "internalType": "uint256",
          "name": "",
          "type": "uint256"
        }
      ],
      "stateMutability": "view",
      "type": "function"
    },
    {
      "inputs": [],
      "name": "oracleNode",
      "outputs": [
        {
          "internalType": "address",
          "name": "",
          "type": "address"
        }
      ],
      "stateMutability": "view",
      "type": "function"
    },
    {
      "inputs": [],
      "name": "owner",
      "outputs": [
        {
          "internalType": "address",
          "name": "",
          "type": "address"
        }
      ],
      "stateMutability": "view",
      "type": "function"
    },
    {
      "inputs": [],
      "name": "renounceOwnership",
      "outputs": [],
      "stateMutability": "nonpayable",
      "type": "function"
    },
    {
      "inputs": [
        {
          "internalType": "string",
          "name": "model",
          "type": "string"
        },
        {
          "internalType": "uint256",
          "name": "fee",
          "type": "uint256"
        }
      ],
      "name": "setModelFee",
      "outputs": [],
      "stateMutability": "nonpayable",
      "type": "function"
    },
    {
      "inputs": [
        {
          "internalType": "address",
          "name": "_oracleNode",
          "type": "address"
        }
      ],
      "name": "setOracleNode",
      "outputs": [],
      "stateMutability": "nonpayable",
      "type": "function"
    },
    {
      "inputs": [
        {
          "internalType": "address",
          "name": "newOwner",
          "type": "address"
        }
      ],
      "name": "transferOwnership",
      "outputs": [],
      "stateMutability": "nonpayable",
      "type": "function"
    },
    {
      "inputs": [],
      "name": "withdraw",
      "outputs": [],
      "stateMutability": "nonpayable",
      "type": "function"
    }
  ],
  "bytecode": "0x60806040523480156200001157600080fd5b5060405162002b4a38038062002b4a83398181016040528101906200003791906200027f565b33600073ffffffffffffffffffffffffffffffffffffffff168173ffffffffffffffffffffffffffffffffffffffff1603620000ad5760006040517f1e4fbdf7000000000000000000000000000000000000000000000000000000008152600401620000a49190620002d7565b60405180910390fd5b620000be816200015160201b60201c565b5081600160006101000a81548173ffffffffffffffffffffffffffffffffffffffff021916908373ffffffffffffffffffffffffffffffffffffffff16021790555080600460006101000a81548173ffffffffffffffffffffffffffffffffffffffff021916908373ffffffffffffffffffffffffffffffffffffffff16021790555060016005819055505050620002f4565b60008060009054906101000a900473ffffffffffffffffffffffffffffffffffffffff169050816000806101000a81548173ffffffffffffffffffffffffffffffffffffffff021916908373ffffffffffffffffffffffffffffffffffffffff1602179055508173ffffffffffffffffffffffffffffffffffffffff168173ffffffffffffffffffffffffffffffffffffffff167f8be0079c531659141344cd1fd0a4f28419497f9722a3daafe3b4186f6b6457e060405160405180910390a35050565b600080fd5b600073ffffffffffffffffffffffffffffffffffffffff82169050919050565b600062000247826200021a565b9050919050565b62000259816200023a565b81146200026557600080fd5b50565b60008151905062000279816200024e565b92915050565b6000806040838503121562000299576200029862000215565b5b6000620002a98582860162000268565b9250506020620002bc8582860162000268565b9150509250929050565b620002d1816200023a565b82525050565b6000602082019050620002ee6000830184620002c6565b92915050565b61284680620003046000396000f3fe608060405234801561001057600080fd5b50600436106100ea5760003560e01c806379e041f21161008c578063bde2798511610066578063bde279851461020f578063c82035211461023f578063cdfe6aea1461025d578063f2fde38b1461028d576100ea565b806379e041f2146101a357806380cc0dda146101d35780638da5cb5b146101f1576100ea565b806357285ba5116100c857806357285ba5146101315780635a0bf5b314610161578063715018a61461017d57806377a0e19a14610187576100ea565b80630d9577c6146100ef57806339febe8b1461010b5780633ccfd60b14610127575b600080fd5b61010960048036038101906101049190611607565b6102a9565b005b610125600480360381019061012091906116c5565b610349565b005b61012f610395565b005b61014b60048036038101906101469190611748565b61051f565b604051610158919061180b565b60405180910390f35b61017b60048036038101906101769190611826565b6107f5565b005b610185610860565b005b6101a1600480360381019061019c9190611932565b610874565b005b6101bd60048036038101906101b891906119b3565b6109bb565b6040516101ca9190611be7565b60405180910390f35b6101db610d5a565b6040516101e89190611c18565b60405180910390f35b6101f9610d80565b6040516102069190611c18565b60405180910390f35b61022960048036038101906102249190611d63565b610da9565b6040516102369190611dc7565b60405180910390f35b610247610ddf565b6040516102549190611e41565b60405180910390f35b61027760048036038101906102729190611d63565b610e05565b604051610284919061180b565b60405180910390f35b6102a760048036038101906102a291906116c5565b610e33565b005b600460009054906101000a900473ffffffffffffffffffffffffffffffffffffffff1673ffffffffffffffffffffffffffffffffffffffff163373ffffffffffffffffffffffffffffffffffffffff1614610339576040517f08c379a000000000000000000000000000000000000000000000000000000000815260040161033090611eb9565b60405180910390fd5b610344838383610eb9565b505050565b610351611363565b80600460006101000a81548173ffffffffffffffffffffffffffffffffffffffff021916908373ffffffffffffffffffffffffffffffffffffffff16021790555050565b61039d611363565b6000600160009054906101000a900473ffffffffffffffffffffffffffffffffffffffff1673ffffffffffffffffffffffffffffffffffffffff166370a08231306040518263ffffffff1660e01b81526004016103fa9190611c18565b602060405180830381865afa158015610417573d6000803e3d6000fd5b505050506040513d601f19601f8201168201806040525081019061043b9190611eee565b9050600160009054906101000a900473ffffffffffffffffffffffffffffffffffffffff1673ffffffffffffffffffffffffffffffffffffffff1663a9059cbb33836040518363ffffffff1660e01b815260040161049a929190611f1b565b6020604051808303816000875af11580156104b9573d6000803e3d6000fd5b505050506040513d601f19601f820116820180604052508101906104dd9190611f70565b61051c576040517f08c379a000000000000000000000000000000000000000000000000000000000815260040161051390611fe9565b60405180910390fd5b50565b600060038787604051610533929190612039565b908152602001604051809103902060009054906101000a900460ff1661058e576040517f08c379a00000000000000000000000000000000000000000000000000000000081526004016105859061209e565b60405180910390fd5b6000600288886040516105a2929190612039565b9081526020016040518091039020549050600160009054906101000a900473ffffffffffffffffffffffffffffffffffffffff1673ffffffffffffffffffffffffffffffffffffffff166323b872dd3330846040518463ffffffff1660e01b8152600401610612939291906120be565b6020604051808303816000875af1158015610631573d6000803e3d6000fd5b505050506040513d601f19601f820116820180604052508101906106559190611f70565b610694576040517f08c379a000000000000000000000000000000000000000000000000000000000815260040161068b90612141565b60405180910390fd5b6000600560008154809291906106a990612190565b9190505590506000600660008381526020019081526020016000209050818160000181905550338160010160006101000a81548173ffffffffffffffffffffffffffffffffffffffff021916908373ffffffffffffffffffffffffffffffffffffffff16021790555089898260020191826107259291906123e5565b5087878260030191826107399291906123e5565b50858582600401918261074d9291906123e5565b506007829080600181540180825580915050600190039060005260206000200160009091909190915055600160078054905061078991906124b5565b60086000848152602001908152602001600020819055507f8058cc2707a24c2c7f45ad1df8d78d435ffd77dfd6f4b999dd82bb715b5fa43b82338c8c8c8c8c8c6040516107dd989796959493929190612516565b60405180910390a18193505050509695505050505050565b6107fd611363565b8060028484604051610810929190612039565b908152602001604051809103902081905550600160038484604051610836929190612039565b908152602001604051809103902060006101000a81548160ff021916908315150217905550505050565b610868611363565b61087260006113ea565b565b600460009054906101000a900473ffffffffffffffffffffffffffffffffffffffff1673ffffffffffffffffffffffffffffffffffffffff163373ffffffffffffffffffffffffffffffffffffffff1614610904576040517f08c379a00000000000000000000000000000000000000000000000000000000081526004016108fb90611eb9565b60405180910390fd5b81819050848490501461094c576040517f08c379a0000000000000000000000000000000000000000000000000000000008152600401610943906125d0565b60405180910390fd5b60005b848490508110156109b4576109a18585838181106109705761096f6125f0565b5b9050602002013584848481811061098a576109896125f0565b5b905060200281019061099c919061262e565b610eb9565b80806109ac90612190565b91505061094f565b5050505050565b60606007805490508310610a2557600067ffffffffffffffff8111156109e4576109e3611c38565b5b604051908082528060200260200182016040528015610a1d57816020015b610a0a6114b6565b815260200190600190039081610a025790505b509050610d54565b60008284610a339190612691565b9050600780549050811115610a4b5760078054905090505b60008482610a5991906124b5565b905060008167ffffffffffffffff811115610a7757610a76611c38565b5b604051908082528060200260200182016040528015610ab057816020015b610a9d6114b6565b815260200190600190039081610a955790505b50905060005b82811015610d4c57600660006007838a610ad09190612691565b81548110610ae157610ae06125f0565b5b906000526020600020015481526020019081526020016000206040518060a0016040529081600082015481526020016001820160009054906101000a900473ffffffffffffffffffffffffffffffffffffffff1673ffffffffffffffffffffffffffffffffffffffff1673ffffffffffffffffffffffffffffffffffffffff168152602001600282018054610b7590612212565b80601f0160208091040260200160405190810160405280929190818152602001828054610ba190612212565b8015610bee5780601f10610bc357610100808354040283529160200191610bee565b820191906000526020600020905b815481529060010190602001808311610bd157829003601f168201915b50505050508152602001600382018054610c0790612212565b80601f0160208091040260200160405190810160405280929190818152602001828054610c3390612212565b8015610c805780601f10610c5557610100808354040283529160200191610c80565b820191906000526020600020905b815481529060010190602001808311610c6357829003601f168201915b50505050508152602001600482018054610c9990612212565b80601f0160208091040260200160405190810160405280929190818152602001828054610cc590612212565b8015610d125780601f10610ce757610100808354040283529160200191610d12565b820191906000526020600020905b815481529060010190602001808311610cf557829003601f168201915b505050505081525050828281518110610d2e57610d2d6125f0565b5b60200260200101819052508080610d4490612190565b915050610ab6565b508093505050505b92915050565b600460009054906101000a900473ffffffffffffffffffffffffffffffffffffffff1681565b60008060009054906101000a900473ffffffffffffffffffffffffffffffffffffffff16905090565b6003818051602081018201805184825260208301602085012081835280955050505050506000915054906101000a900460ff1681565b600160009054906101000a900473ffffffffffffffffffffffffffffffffffffffff1681565b6002818051602081018201805184825260208301602085012081835280955050505050506000915090505481565b610e3b611363565b600073ffffffffffffffffffffffffffffffffffffffff168173ffffffffffffffffffffffffffffffffffffffff1603610ead5760006040517f1e4fbdf7000000000000000000000000000000000000000000000000000000008152600401610ea49190611c18565b60405180910390fd5b610eb6816113ea565b50565b6000600660008581526020019081526020016000206040518060a0016040529081600082015481526020016001820160009054906101000a900473ffffffffffffffffffffffffffffffffffffffff1673ffffffffffffffffffffffffffffffffffffffff1673ffffffffffffffffffffffffffffffffffffffff168152602001600282018054610f4990612212565b80601f0160208091040260200160405190810160405280929190818152602001828054610f7590612212565b8015610fc25780601f10610f9757610100808354040283529160200191610fc2565b820191906000526020600020905b815481529060010190602001808311610fa557829003601f168201915b50505050508152602001600382018054610fdb90612212565b80601f016020809104026020016040519081016040528092919081815260200182805461100790612212565b80156110545780601f1061102957610100808354040283529160200191611054565b820191906000526020600020905b81548152906001019060200180831161103757829003601f168201915b5050505050815260200160048201805461106d90612212565b80601f016020809104026020016040519081016040528092919081815260200182805461109990612212565b80156110e65780601f106110bb576101008083540402835291602001916110e6565b820191906000526020600020905b8154815290600101906020018083116110c957829003601f168201915b5050505050815250509050600073ffffffffffffffffffffffffffffffffffffffff16816020015173ffffffffffffffffffffffffffffffffffffffff1603611164576040517f08c379a000000000000000000000000000000000000000000000000000000000815260040161115b90612711565b60405180910390fd5b6000600860008681526020019081526020016000205490506000600160078054905061119091906124b5565b90508082146111f9576000600782815481106111af576111ae6125f0565b5b9060005260206000200154905080600784815481106111d1576111d06125f0565b5b9060005260206000200181905550826008600083815260200190815260200160002081905550505b600780548061120b5761120a612731565b5b600190038181906000526020600020016000905590556008600087815260200190815260200160002060009055600660008781526020019081526020016000206000808201600090556001820160006101000a81549073ffffffffffffffffffffffffffffffffffffffff021916905560028201600061128b91906114fb565b60038201600061129b91906114fb565b6004820160006112ab91906114fb565b50507f7efdd10841147afb72fe80ec86241638d2bd24af07a103c3dece313e1d11f92486846020015187876040516112e6949392919061279e565b60405180910390a1826020015173ffffffffffffffffffffffffffffffffffffffff1663bbd75d548787876040518463ffffffff1660e01b815260040161132f939291906127de565b600060405180830381600087803b15801561134957600080fd5b505af192505050801561135a575060015b50505050505050565b61136b6114ae565b73ffffffffffffffffffffffffffffffffffffffff16611389610d80565b73ffffffffffffffffffffffffffffffffffffffff16146113e8576113ac6114ae565b6040517f118cdaa70000000000000000000000000000000000000000000000000000000081526004016113df9190611c18565b60405180910390fd5b565b60008060009054906101000a900473ffffffffffffffffffffffffffffffffffffffff169050816000806101000a81548173ffffffffffffffffffffffffffffffffffffffff021916908373ffffffffffffffffffffffffffffffffffffffff1602179055508173ffffffffffffffffffffffffffffffffffffffff168173ffffffffffffffffffffffffffffffffffffffff167f8be0079c531659141344cd1fd0a4f28419497f9722a3daafe3b4186f6b6457e060405160405180910390a35050565b600033905090565b6040518060a0016040528060008152602001600073ffffffffffffffffffffffffffffffffffffffff1681526020016060815260200160608152602001606081525090565b50805461150790612212565b6000825580601f106115195750611538565b601f016020900490600052602060002090810190611537919061153b565b5b50565b5b8082111561155457600081600090555060010161153c565b5090565b6000604051905090565b600080fd5b600080fd5b6000819050919050565b61157f8161156c565b811461158a57600080fd5b50565b60008135905061159c81611576565b92915050565b600080fd5b600080fd5b600080fd5b60008083601f8401126115c7576115c66115a2565b5b8235905067ffffffffffffffff8111156115e4576115e36115a7565b5b602083019150836001820283011115611600576115ff6115ac565b5b9250929050565b6000806000604084860312156116205761161f611562565b5b600061162e8682870161158d565b935050602084013567ffffffffffffffff81111561164f5761164e611567565b5b61165b868287016115b1565b92509250509250925092565b600073ffffffffffffffffffffffffffffffffffffffff82169050919050565b600061169282611667565b9050919050565b6116a281611687565b81146116ad57600080fd5b50565b6000813590506116bf81611699565b92915050565b6000602082840312156116db576116da611562565b5b60006116e9848285016116b0565b91505092915050565b60008083601f840112611708576117076115a2565b5b8235905067ffffffffffffffff811115611725576117246115a7565b5b602083019150836001820283011115611741576117406115ac565b5b9250929050565b6000806000806000806060878903121561176557611764611562565b5b600087013567ffffffffffffffff81111561178357611782611567565b5b61178f89828a016116f2565b9650965050602087013567ffffffffffffffff8111156117b2576117b1611567565b5b6117be89828a016116f2565b9450945050604087013567ffffffffffffffff8111156117e1576117e0611567565b5b6117ed89828a016116f2565b92509250509295509295509295565b6118058161156c565b82525050565b600060208201905061182060008301846117fc565b92915050565b60008060006040848603121561183f5761183e611562565b5b600084013567ffffffffffffffff81111561185d5761185c611567565b5b611869868287016116f2565b9350935050602061187c8682870161158d565b9150509250925092565b60008083601f84011261189c5761189b6115a2565b5b8235905067ffffffffffffffff8111156118b9576118b86115a7565b5b6020830191508360208202830111156118d5576118d46115ac565b5b9250929050565b60008083601f8401126118f2576118f16115a2565b5b8235905067ffffffffffffffff81111561190f5761190e6115a7565b5b60208301915083602082028301111561192b5761192a6115ac565b5b9250929050565b6000806000806040858703121561194c5761194b611562565b5b600085013567ffffffffffffffff81111561196a57611969611567565b5b61197687828801611886565b9450945050602085013567ffffffffffffffff81111561199957611998611567565b5b6119a5878288016118dc565b925092505092959194509250565b600080604083850312156119ca576119c9611562565b5b60006119d88582860161158d565b92505060206119e98582860161158d565b9150509250929050565b600081519050919050565b600082825260208201905092915050565b6000819050602082019050919050565b611a288161156c565b82525050565b611a3781611687565b82525050565b600081519050919050565b600082825260208201905092915050565b60005b83811015611a77578082015181840152602081019050611a5c565b60008484015250505050565b6000601f19601f8301169050919050565b6000611a9f82611a3d565b611aa98185611a48565b9350611ab9818560208601611a59565b611ac281611a83565b840191505092915050565b600060a083016000830151611ae56000860182611a1f565b506020830151611af86020860182611a2e565b5060408301518482036040860152611b108282611a94565b91505060608301518482036060860152611b2a8282611a94565b91505060808301518482036080860152611b448282611a94565b9150508091505092915050565b6000611b5d8383611acd565b905092915050565b6000602082019050919050565b6000611b7d826119f3565b611b8781856119fe565b935083602082028501611b9985611a0f565b8060005b85811015611bd55784840389528151611bb68582611b51565b9450611bc183611b65565b925060208a01995050600181019050611b9d565b50829750879550505050505092915050565b60006020820190508181036000830152611c018184611b72565b905092915050565b611c1281611687565b82525050565b6000602082019050611c2d6000830184611c09565b92915050565b600080fd5b7f4e487b7100000000000000000000000000000000000000000000000000000000600052604160045260246000fd5b611c7082611a83565b810181811067ffffffffffffffff82111715611c8f57611c8e611c38565b5b80604052505050565b6000611ca2611558565b9050611cae8282611c67565b919050565b600067ffffffffffffffff821115611cce57611ccd611c38565b5b611cd782611a83565b9050602081019050919050565b82818337600083830152505050565b6000611d06611d0184611cb3565b611c98565b905082815260208101848484011115611d2257611d21611c33565b5b611d2d848285611ce4565b509392505050565b600082601f830112611d4a57611d496115a2565b5b8135611d5a848260208601611cf3565b91505092915050565b600060208284031215611d7957611d78611562565b5b600082013567ffffffffffffffff811115611d9757611d96611567565b5b611da384828501611d35565b91505092915050565b60008115159050919050565b611dc181611dac565b82525050565b6000602082019050611ddc6000830184611db8565b92915050565b6000819050919050565b6000611e07611e02611dfd84611667565b611de2565b611667565b9050919050565b6000611e1982611dec565b9050919050565b6000611e2b82611e0e565b9050919050565b611e3b81611e20565b82525050565b6000602082019050611e566000830184611e32565b92915050565b600082825260208201905092915050565b7f4f6e6c79206f7261636c65206e6f64652063616e2066756c66696c6c00000000600082015250565b6000611ea3601c83611e5c565b9150611eae82611e6d565b602082019050919050565b60006020820190508181036000830152611ed281611e96565b9050919050565b600081519050611ee881611576565b92915050565b600060208284031215611f0457611f03611562565b5b6000611f1284828501611ed9565b91505092915050565b6000604082019050611f306000830185611c09565b611f3d60208301846117fc565b9392505050565b611f4d81611dac565b8114611f5857600080fd5b50565b600081519050611f6a81611f44565b92915050565b600060208284031215611f8657611f85611562565b5b6000611f9484828501611f5b565b91505092915050565b7f5472616e73666572206661696c65640000000000000000000000000000000000600082015250565b6000611fd3600f83611e5c565b9150611fde82611f9d565b602082019050919050565b6000602082019050818103600083015261200281611fc6565b9050919050565b600081905092915050565b60006120208385612009565b935061202d838584611ce4565b82840190509392505050565b6000612046828486612014565b91508190509392505050565b7f4d6f64656c206e6f7420737570706f7274656400000000000000000000000000600082015250565b6000612088601383611e5c565b915061209382612052565b602082019050919050565b600060208201905081810360008301526120b78161207b565b9050919050565b60006060820190506120d36000830186611c09565b6120e06020830185611c09565b6120ed60408301846117fc565b949350505050565b7f466565207472616e73666572206661696c656400000000000000000000000000600082015250565b600061212b601383611e5c565b9150612136826120f5565b602082019050919050565b6000602082019050818103600083015261215a8161211e565b9050919050565b7f4e487b7100000000000000000000000000000000000000000000000000000000600052601160045260246000fd5b600061219b8261156c565b91507fffffffffffffffffffffffffffffffffffffffffffffffffffffffffffffffff82036121cd576121cc612161565b5b600182019050919050565b600082905092915050565b7f4e487b7100000000000000000000000000000000000000000000000000000000600052602260045260246000fd5b6000600282049050600182168061222a57607f821691505b60208210810361223d5761223c6121e3565b5b50919050565b60008190508160005260206000209050919050565b60006020601f8301049050919050565b600082821b905092915050565b6000600883026122a57fffffffffffffffffffffffffffffffffffffffffffffffffffffffffffffffff82612268565b6122af8683612268565b95508019841693508086168417925050509392505050565b60006122e26122dd6122d88461156c565b611de2565b61156c565b9050919050565b6000819050919050565b6122fc836122c7565b612310612308826122e9565b848454612275565b825550505050565b600090565b612325612318565b6123308184846122f3565b505050565b5b818110156123545761234960008261231d565b600181019050612336565b5050565b601f8211156123995761236a81612243565b61237384612258565b81016020851015612382578190505b61239661238e85612258565b830182612335565b50505b505050565b600082821c905092915050565b60006123bc6000198460080261239e565b1980831691505092915050565b60006123d583836123ab565b9150826002028217905092915050565b6123ef83836121d8565b67ffffffffffffffff81111561240857612407611c38565b5b6124128254612212565b61241d828285612358565b6000601f83116001811461244c576000841561243a578287013590505b61244485826123c9565b8655506124ac565b601f19841661245a86612243565b60005b828110156124825784890135825560018201915060208501945060208101905061245d565b8683101561249f578489013561249b601f8916826123ab565b8355505b6001600288020188555050505b50505050505050565b60006124c08261156c565b91506124cb8361156c565b92508282039050818111156124e3576124e2612161565b5b92915050565b60006124f58385611e5c565b9350612502838584611ce4565b61250b83611a83565b840190509392505050565b600060a08201905061252b600083018b6117fc565b612538602083018a611c09565b818103604083015261254b81888a6124e9565b905081810360608301526125608186886124e9565b905081810360808301526125758184866124e9565b90509998505050505050505050565b7f4c656e677468206d69736d617463680000000000000000000000000000000000600082015250565b60006125ba600f83611e5c565b91506125c582612584565b602082019050919050565b600060208201905081810360008301526125e9816125ad565b9050919050565b7f4e487b7100000000000000000000000000000000000000000000000000000000600052603260045260246000fd5b600080fd5b600080fd5b600080fd5b6000808335600160200384360303811261264b5761264a61261f565b5b80840192508235915067ffffffffffffffff82111561266d5761266c612624565b5b60208301925060018202360383131561268957612688612629565b5b509250929050565b600061269c8261156c565b91506126a78361156c565b92508282019050808211156126bf576126be612161565b5b92915050565b7f52657175657374206e6f7420666f756e64000000000000000000000000000000600082015250565b60006126fb601183611e5c565b9150612706826126c5565b602082019050919050565b6000602082019050818103600083015261272a816126ee565b9050919050565b7f4e487b7100000000000000000000000000000000000000000000000000000000600052603160045260246000fd5b600082825260208201905092915050565b600061277d8385612760565b935061278a838584611ce4565b61279383611a83565b840190509392505050565b60006060820190506127b360008301876117fc565b6127c06020830186611c09565b81810360408301526127d3818486612771565b905095945050505050565b60006040820190506127f360008301866117fc565b8181036020830152612806818486612771565b905094935050505056fea2646970667358221220aa99fbda3dfa93078ed97cdcadb63d13bdb7a52061eba250f74df14e8e5a72f364736f6c63430008140033",
  "linkReferences": {},
  "deployedLinkReferences": {}
}