{"contracts/Consumer.sol":{"Consumer":{"abi":[{"inputs":[{"internalType":"address","name":"_oracle","type":"address"},{"internalType":"address","name":"_aiToken","type":"address"}],"stateMutability":"nonpayable","type":"constructor"},{"anonymous":false,"inputs":[{"indexed":false,"internalType":"uint256","name":"requestId","type":"uint256"},{"indexed":false,"internalType":"string","name":"ticker","type":"string"},{"indexed":false,"internalType":"string","name":"name","type":"string"},{"indexed":false,"internalType":"uint256","name":"supply","type":"uint256"},{"indexed":false,"internalType":"string","name":"description","type":"string"}],"name":"ReceivedResponse","type":"event"},{"inputs":[],"name":"aiToken","outputs":[{"internalType":"contract IERC20","name":"","type":"address"}],"stateMutability":"view","type":"function"},{"inputs":[],"name":"description","outputs":[{"internalType":"string","name":"","type":"string"}],"stateMutability":"view","type":"function"},{"inputs":[{"internalType":"uint256","name":"requestId","type":"uint256"},{"internalType":"bytes","name":"data","type":"bytes"}],"name":"fulfillAiResponse","outputs":[],"stateMutability":"nonpayable","type":"function"},{"inputs":[],"name":"name","outputs":[{"internalType":"string","name":"","type":"string"}],"stateMutability":"view","type":"function"},{"inputs":[],"name":"oracle","outputs":[{"internalType":"contract IAiOracle","name":"","type":"address"}],"stateMutability":"view","type":"function"},{"inputs":[{"internalType":"string","name":"model","type":"string"},{"internalType":"string","name":"prompt","type":"string"},{"internalType":"string","name":"responseType","type":"string"}],"name":"requestAI","outputs":[],"stateMutability":"nonpayable","type":"function"},{"inputs":[],"name":"supply","outputs":[{"internalType":"uint256","name":"","type":"uint256"}],"stateMutability":"view","type":"function"},{"inputs":[],"name":"ticker","outputs":[{"internalType":"string","name":"","type":"string"}],"stateMutability":"view","type":"function"}],"evm":{"bytecode":{"linkReferences":{},"object":"60806040523480156200001157600080fd5b50604051620013083803806200130883398181016040528101906200003791906200012a565b816000806101000a81548173ffffffffffffffffffffffffffffffffffffffff021916908373ffffffffffffffffffffffffffffffffffffffff16021790555080600160006101000a81548173ffffffffffffffffffffffffffffffffffffffff021916908373ffffffffffffffffffffffffffffffffffffffff160217905550505062000171565b600080fd5b600073ffffffffffffffffffffffffffffffffffffffff82169050919050565b6000620000f282620000c5565b9050919050565b6200010481620000e5565b81146200011057600080fd5b50565b6000815190506200012481620000f9565b92915050565b60008060408385031215620001445762000143620000c0565b5b6000620001548582860162000113565b9250506020620001678582860162000113565b9150509250929050565b61118780620001816000396000f3fe608060405234801561001057600080fd5b50600436106100885760003560e01c80638ba47bdd1161005b5780638ba47bdd14610105578063adb8e32e14610123578063bbd75d541461013f578063c82035211461015b57610088565b8063047fc9aa1461008d57806306fdde03146100ab5780637284e416146100c95780637dc0d1d0146100e7575b600080fd5b610095610179565b6040516100a29190610709565b60405180910390f35b6100b361017f565b6040516100c091906107b4565b60405180910390f35b6100d161020d565b6040516100de91906107b4565b60405180910390f35b6100ef61029b565b6040516100fc9190610855565b60405180910390f35b61010d6102bf565b60405161011a91906107b4565b60405180910390f35b61013d600480360381019061013891906109b9565b61034d565b005b61015960048036038101906101549190610aec565b6105a0565b005b6101636106ca565b6040516101709190610b6d565b60405180910390f35b60045481565b6003805461018c90610bb7565b80601f01602080910402602001604051908101604052809291908181526020018280546101b890610bb7565b80156102055780601f106101da57610100808354040283529160200191610205565b820191906000526020600020905b8154815290600101906020018083116101e857829003601f168201915b505050505081565b6005805461021a90610bb7565b80601f016020809104026020016040519081016040528092919081815260200182805461024690610bb7565b80156102935780601f1061026857610100808354040283529160200191610293565b820191906000526020600020905b81548152906001019060200180831161027657829003601f168201915b505050505081565b60008054906101000a900473ffffffffffffffffffffffffffffffffffffffff1681565b600280546102cc90610bb7565b80601f01602080910402602001604051908101604052809291908181526020018280546102f890610bb7565b80156103455780601f1061031a57610100808354040283529160200191610345565b820191906000526020600020905b81548152906001019060200180831161032857829003601f168201915b505050505081565b6000600160009054906101000a900473ffffffffffffffffffffffffffffffffffffffff1673ffffffffffffffffffffffffffffffffffffffff1663dd62ed3e3060008054906101000a900473ffffffffffffffffffffffffffffffffffffffff166040518363ffffffff1660e01b81526004016103cc929190610c09565b602060405180830381865afa1580156103e9573d6000803e3d6000fd5b505050506040513d601f19601f8201168201806040525081019061040d9190610c47565b9050600081036104f957600160009054906101000a900473ffffffffffffffffffffffffffffffffffffffff1673ffffffffffffffffffffffffffffffffffffffff1663095ea7b360008054906101000a900473ffffffffffffffffffffffffffffffffffffffff167fffffffffffffffffffffffffffffffffffffffffffffffffffffffffffffffff6040518363ffffffff1660e01b81526004016104b4929190610c74565b6020604051808303816000875af11580156104d3573d6000803e3d6000fd5b505050506040513d601f19601f820116820180604052508101906104f79190610cd5565b505b60008054906101000a900473ffffffffffffffffffffffffffffffffffffffff1673ffffffffffffffffffffffffffffffffffffffff166357285ba58585856040518463ffffffff1660e01b815260040161055693929190610d02565b6020604051808303816000875af1158015610575573d6000803e3d6000fd5b505050506040513d601f19601f820116820180604052508101906105999190610c47565b5050505050565b60008054906101000a900473ffffffffffffffffffffffffffffffffffffffff1673ffffffffffffffffffffffffffffffffffffffff163373ffffffffffffffffffffffffffffffffffffffff161461062e576040517f08c379a000000000000000000000000000000000000000000000000000000000815260040161062590610d9a565b60405180910390fd5b60008060008085858101906106439190610dba565b9350935093509350836002908161065a9190611017565b50826003908161066a9190611017565b508160048190555080600590816106819190611017565b507f2c2a2ae88b131aecb610b559aee45030df628cf5169ff5f08f0b90271972cc5b87858585856040516106b99594939291906110e9565b60405180910390a150505050505050565b600160009054906101000a900473ffffffffffffffffffffffffffffffffffffffff1681565b6000819050919050565b610703816106f0565b82525050565b600060208201905061071e60008301846106fa565b92915050565b600081519050919050565b600082825260208201905092915050565b60005b8381101561075e578082015181840152602081019050610743565b60008484015250505050565b6000601f19601f8301169050919050565b600061078682610724565b610790818561072f565b93506107a0818560208601610740565b6107a98161076a565b840191505092915050565b600060208201905081810360008301526107ce818461077b565b905092915050565b600073ffffffffffffffffffffffffffffffffffffffff82169050919050565b6000819050919050565b600061081b610816610811846107d6565b6107f6565b6107d6565b9050919050565b600061082d82610800565b9050919050565b600061083f82610822565b9050919050565b61084f81610834565b82525050565b600060208201905061086a6000830184610846565b92915050565b6000604051905090565b600080fd5b600080fd5b600080fd5b600080fd5b7f4e487b7100000000000000000000000000000000000000000000000000000000600052604160045260246000fd5b6108c68261076a565b810181811067ffffffffffffffff821117156108e5576108e461088e565b5b80604052505050565b60006108f8610870565b905061090482826108bd565b919050565b600067ffffffffffffffff8211156109245761092361088e565b5b61092d8261076a565b9050602081019050919050565b82818337600083830152505050565b600061095c61095784610909565b6108ee565b90508281526020810184848401111561097857610977610889565b5b61098384828561093a565b509392505050565b600082601f8301126109a05761099f610884565b5b81356109b0848260208601610949565b91505092915050565b6000806000606084860312156109d2576109d161087a565b5b600084013567ffffffffffffffff8111156109f0576109ef61087f565b5b6109fc8682870161098b565b935050602084013567ffffffffffffffff811115610a1d57610a1c61087f565b5b610a298682870161098b565b925050604084013567ffffffffffffffff811115610a4a57610a4961087f565b5b610a568682870161098b565b9150509250925092565b610a69816106f0565b8114610a7457600080fd5b50565b600081359050610a8681610a60565b92915050565b600080fd5b600080fd5b60008083601f840112610aac57610aab610884565b5b8235905067ffffffffffffffff811115610ac957610ac8610a8c565b5b602083019150836001820283011115610ae557610ae4610a91565b5b9250929050565b600080600060408486031215610b0557610b0461087a565b5b6000610b1386828701610a77565b935050602084013567ffffffffffffffff811115610b3457610b3361087f565b5b610b4086828701610a96565b92509250509250925092565b6000610b5782610822565b9050919050565b610b6781610b4c565b82525050565b6000602082019050610b826000830184610b5e565b92915050565b7f4e487b7100000000000000000000000000000000000000000000000000000000600052602260045260246000fd5b60006002820490506001821680610bcf57607f821691505b602082108103610be257610be1610b88565b5b50919050565b6000610bf3826107d6565b9050919050565b610c0381610be8565b82525050565b6000604082019050610c1e6000830185610bfa565b610c2b6020830184610bfa565b9392505050565b600081519050610c4181610a60565b92915050565b600060208284031215610c5d57610c5c61087a565b5b6000610c6b84828501610c32565b91505092915050565b6000604082019050610c896000830185610bfa565b610c9660208301846106fa565b9392505050565b60008115159050919050565b610cb281610c9d565b8114610cbd57600080fd5b50565b600081519050610ccf81610ca9565b92915050565b600060208284031215610ceb57610cea61087a565b5b6000610cf984828501610cc0565b91505092915050565b60006060820190508181036000830152610d1c818661077b565b90508181036020830152610d30818561077b565b90508181036040830152610d44818461077b565b9050949350505050565b7f4f6e6c79206f7261636c652063616e2063616c6c207468697300000000000000600082015250565b6000610d8460198361072f565b9150610d8f82610d4e565b602082019050919050565b60006020820190508181036000830152610db381610d77565b9050919050565b60008060008060808587031215610dd457610dd361087a565b5b600085013567ffffffffffffffff811115610df257610df161087f565b5b610dfe8782880161098b565b945050602085013567ffffffffffffffff811115610e1f57610e1e61087f565b5b610e2b8782880161098b565b9350506040610e3c87828801610a77565b925050606085013567ffffffffffffffff811115610e5d57610e5c61087f565b5b610e698782880161098b565b91505092959194509250565b60008190508160005260206000209050919050565b60006020601f8301049050919050565b600082821b905092915050565b600060088302610ed77fffffffffffffffffffffffffffffffffffffffffffffffffffffffffffffffff82610e9a565b610ee18683610e9a565b95508019841693508086168417925050509392505050565b6000610f14610f0f610f0a846106f0565b6107f6565b6106f0565b9050919050565b6000819050919050565b610f2e83610ef9565b610f42610f3a82610f1b565b848454610ea7565b825550505050565b600090565b610f57610f4a565b610f62818484610f25565b505050565b5b81811015610f8657610f7b600082610f4f565b600181019050610f68565b5050565b601f821115610fcb57610f9c81610e75565b610fa584610e8a565b81016020851015610fb4578190505b610fc8610fc085610e8a565b830182610f67565b50505b505050565b600082821c905092915050565b6000610fee60001984600802610fd0565b1980831691505092915050565b60006110078383610fdd565b9150826002028217905092915050565b61102082610724565b67ffffffffffffffff8111156110395761103861088e565b5b6110438254610bb7565b61104e828285610f8a565b600060209050601f831160018114611081576000841561106f578287015190505b6110798582610ffb565b8655506110e1565b601f19841661108f86610e75565b60005b828110156110b757848901518255600182019150602085019450602081019050611092565b868310156110d457848901516110d0601f891682610fdd565b8355505b6001600288020188555050505b505050505050565b600060a0820190506110fe60008301886106fa565b8181036020830152611110818761077b565b90508181036040830152611124818661077b565b905061113360608301856106fa565b8181036080830152611145818461077b565b9050969550505050505056fea2646970667358221220d157a088b64a17e2f673693a73859fa75c3959b2da7d0f400c9d82d791b9a2d264736f6c63430008140033","opcodes":"PUSH1 0x80 PUSH1 0x40 MSTORE CALLVALUE DUP1 ISZERO PUSH3 0x11 JUMPI PUSH1 0x0 DUP1 REVERT JUMPDEST POP PUSH1 0x40 MLOAD PUSH3 0x1308 CODESIZE SUB DUP1 PUSH3 0x1308 DUP4 CODECOPY DUP2 DUP2 ADD PUSH1 0x40 MSTORE DUP2 ADD SWAP1 PUSH3 0x37 SWAP2 SWAP1 PUSH3 0x12A JUMP JUMPDEST DUP2 PUSH1 0x0 DUP1 PUSH2 0x100 EXP DUP2 SLOAD DUP2 PUSH20 0xFFFFFFFFFFFFFFFFFFFFFFFFFFFFFFFFFFFFFFFF MUL NOT AND SWAP1 DUP4 PUSH20 0xFFFFFFFFFFFFFFFFFFFFFFFFFFFFFFFFFFFFFFFF AND MUL OR SWAP1 SSTORE POP DUP1 PUSH1 0x1 PUSH1 0x0 PUSH2 0x100 EXP DUP2 SLOAD DUP2 PUSH20 0xFFFFFFFFFFFFFFFFFFFFFFFFFFFFFFFFFFFFFFFF MUL NOT AND SWAP1 DUP4 PUSH20 0xFFFFFFFFFFFFFFFFFFFFFFFFFFFFFFFFFFFFFFFF AND MUL OR SWAP1 SSTORE POP POP POP PUSH3 0x171 JUMP JUMPDEST PUSH1 0x0 DUP1 REVERT JUMPDEST PUSH1 0x0 PUSH20 0xFFFFFFFFFFFFFFFFFFFFFFFFFFFFFFFFFFFFFFFF DUP3 AND SWAP1 POP SWAP2 SWAP1 POP JUMP JUMPDEST PUSH1 0x0 PUSH3 0xF2 DUP3 PUSH3 0xC5 JUMP JUMPDEST SWAP1 POP SWAP2 SWAP1 POP JUMP JUMPDEST PUSH3 0x104 DUP2 PUSH3 0xE5 JUMP JUMPDEST DUP2 EQ PUSH3 0x110 JUMPI PUSH1 0x0 DUP1 REVERT JUMPDEST POP JUMP JUMPDEST PUSH1 0x0 DUP2 MLOAD SWAP1 POP PUSH3 0x124 DUP2 PUSH3 0xF9 JUMP JUMPDEST SWAP3 SWAP2 POP POP JUMP JUMPDEST PUSH1 0x0 DUP1 PUSH1 0x40 DUP4 DUP6 SUB SLT ISZERO PUSH3 0x144 JUMPI PUSH3 0x143 PUSH3 0xC0 JUMP JUMPDEST JUMPDEST PUSH1 0x0 PUSH3 0x154 DUP6 DUP3 DUP7 ADD PUSH3 0x113 JUMP JUMPDEST SWAP3 POP POP PUSH1 0x20 PUSH3 0x167 DUP6 DUP3 DUP7 ADD PUSH3 0x113 JUMP JUMPDEST SWAP2 POP POP SWAP3 POP SWAP3 SWAP1 POP JUMP JUMPDEST PUSH2 0x1187 DUP1 PUSH3 0x181 PUSH1 0x0 CODECOPY PUSH1 0x0 RETURN INVALID PUSH1 0x80 PUSH1 0x40 MSTORE CALLVALUE DUP1 ISZERO PUSH2 0x10 JUMPI PUSH1 0x0 DUP1 REVERT JUMPDEST POP PUSH1 0x4 CALLDATASIZE LT PUSH2 0x88 JUMPI PUSH1 0x0 CALLDATALOAD PUSH1 0xE0 SHR DUP1 PUSH4 0x8BA47BDD GT PUSH2 0x5B JUMPI DUP1 PUSH4 0x8BA47BDD EQ PUSH2 0x105 JUMPI DUP1 PUSH4 0xADB8E32E EQ PUSH2 0x123 JUMPI DUP1 PUSH4 0xBBD75D54 EQ PUSH2 0x13F JUMPI DUP1 PUSH4 0xC8203521 EQ PUSH2 0x15B JUMPI PUSH2 0x88 JUMP JUMPDEST DUP1 PUSH4 0x47FC9AA EQ PUSH2 0x8D JUMPI DUP1 PUSH4 0x6FDDE03 EQ PUSH2 0xAB JUMPI DUP1 PUSH4 0x7284E416 EQ PUSH2 0xC9 JUMPI DUP1 PUSH4 0x7DC0D1D0 EQ PUSH2 0xE7 JUMPI JUMPDEST PUSH1 0x0 DUP1 REVERT JUMPDEST PUSH2 0x95 PUSH2 0x179 JUMP JUMPDEST PUSH1 0x40 MLOAD PUSH2 0xA2 SWAP2 SWAP1 PUSH2 0x709 JUMP JUMPDEST PUSH1 0x40 MLOAD DUP1 SWAP2 SUB SWAP1 RETURN JUMPDEST PUSH2 0xB3 PUSH2 0x17F JUMP JUMPDEST PUSH1 0x40 MLOAD PUSH2 0xC0 SWAP2 SWAP1 PUSH2 0x7B4 JUMP JUMPDEST PUSH1 0x40 MLOAD DUP1 SWAP2 SUB SWAP1 RETURN JUMPDEST PUSH2 0xD1 PUSH2 0x20D JUMP JUMPDEST PUSH1 0x40 MLOAD PUSH2 0xDE SWAP2 SWAP1 PUSH2 0x7B4 JUMP JUMPDEST PUSH1 0x40 MLOAD DUP1 SWAP2 SUB SWAP1 RETURN JUMPDEST PUSH2 0xEF PUSH2 0x29B JUMP JUMPDEST PUSH1 0x40 MLOAD PUSH2 0xFC SWAP2 SWAP1 PUSH2 0x855 JUMP JUMPDEST PUSH1 0x40 MLOAD DUP1 SWAP2 SUB SWAP1 RETURN JUMPDEST PUSH2 0x10D PUSH2 0x2BF JUMP JUMPDEST PUSH1 0x40 MLOAD PUSH2 0x11A SWAP2 SWAP1 PUSH2 0x7B4 JUMP JUMPDEST PUSH1 0x40 MLOAD DUP1 SWAP2 SUB SWAP1 RETURN JUMPDEST PUSH2 0x13D PUSH1 0x4 DUP1 CALLDATASIZE SUB DUP2 ADD SWAP1 PUSH2 0x138 SWAP2 SWAP1 PUSH2 0x9B9 JUMP JUMPDEST PUSH2 0x34D JUMP JUMPDEST STOP JUMPDEST PUSH2 0x159 PUSH1 0x4 DUP1 CALLDATASIZE SUB DUP2 ADD SWAP1 PUSH2 0x154 SWAP2 SWAP1 PUSH2 0xAEC JUMP JUMPDEST PUSH2 0x5A0 JUMP JUMPDEST STOP JUMPDEST PUSH2 0x163 PUSH2 0x6CA JUMP JUMPDEST PUSH1 0x40 MLOAD PUSH2 0x170 SWAP2 SWAP1 PUSH2 0xB6D JUMP JUMPDEST PUSH1 0x40 MLOAD DUP1 SWAP2 SUB SWAP1 RETURN JUMPDEST PUSH1 0x4 SLOAD DUP2 JUMP JUMPDEST PUSH1 0x3 DUP1 SLOAD PUSH2 0x18C SWAP1 PUSH2 0xBB7 JUMP JUMPDEST DUP1 PUSH1 0x1F ADD PUSH1 0x20 DUP1 SWAP2 DIV MUL PUSH1 0x20 ADD PUSH1 0x40 MLOAD SWAP1 DUP2 ADD PUSH1 0x40 MSTORE DUP1 SWAP3 SWAP2 SWAP1 DUP2 DUP2 MSTORE PUSH1 0x20 ADD DUP3 DUP1 SLOAD PUSH2 0x1B8 SWAP1 PUSH2 0xBB7 JUMP JUMPDEST DUP1 ISZERO PUSH2 0x205 JUMPI DUP1 PUSH1 0x1F LT PUSH2 0x1DA JUMPI PUSH2 0x100 DUP1 DUP4 SLOAD DIV MUL DUP4 MSTORE SWAP2 PUSH1 0x20 ADD SWAP2 PUSH2 0x205 JUMP JUMPDEST DUP3 ADD SWAP2 SWAP1 PUSH1 0x0 MSTORE PUSH1 0x20 PUSH1 0x0 KECCAK256 SWAP1 JUMPDEST DUP2 SLOAD DUP2 MSTORE SWAP1 PUSH1 0x1 ADD SWAP1 PUSH1 0x20 ADD DUP1 DUP4 GT PUSH2 0x1E8 JUMPI DUP3 SWAP1 SUB PUSH1 0x1F AND DUP3 ADD SWAP2 JUMPDEST POP POP POP POP POP DUP2 JUMP JUMPDEST PUSH1 0x5 DUP1 SLOAD PUSH2 0x21A SWAP1 PUSH2 0xBB7 JUMP JUMPDEST DUP1 PUSH1 0x1F ADD PUSH1 0x20 DUP1 SWAP2 DIV MUL PUSH1 0x20 ADD PUSH1 0x40 MLOAD SWAP1 DUP2 ADD PUSH1 0x40 MSTORE DUP1 SWAP3 SWAP2 SWAP1 DUP2 DUP2 MSTORE PUSH1 0x20 ADD DUP3 DUP1 SLOAD PUSH2 0x246 SWAP1 PUSH2 0xBB7 JUMP JUMPDEST DUP1 ISZERO PUSH2 0x293 JUMPI DUP1 PUSH1 0x1F LT PUSH2 0x268 JUMPI PUSH2 0x100 DUP1 DUP4 SLOAD DIV MUL DUP4 MSTORE SWAP2 PUSH1 0x20 ADD SWAP2 PUSH2 0x293 JUMP JUMPDEST DUP3 ADD SWAP2 SWAP1 PUSH1 0x0 MSTORE PUSH1 0x20 PUSH1 0x0 KECCAK256 SWAP1 JUMPDEST DUP2 SLOAD DUP2 MSTORE SWAP1 PUSH1 0x1 ADD SWAP1 PUSH1 0x20 ADD DUP1 DUP4 GT PUSH2 0x276 JUMPI DUP3 SWAP1 SUB PUSH1 0x1F AND DUP3 ADD SWAP2 JUMPDEST POP POP POP POP POP DUP2 JUMP JUMPDEST PUSH1 0x0 DUP1 SLOAD SWAP1 PUSH2 0x100 EXP SWAP1 DIV PUSH20 0xFFFFFFFFFFFFFFFFFFFFFFFFFFFFFFFFFFFFFFFF AND DUP2 JUMP JUMPDEST PUSH1 0x2 DUP1 SLOAD PUSH2 0x2CC SWAP1 PUSH2 0xBB7 JUMP JUMPDEST DUP1 PUSH1 0x1F ADD PUSH1 0x20 DUP1 SWAP2 DIV MUL PUSH1 0x20 ADD PUSH1 0x40 MLOAD SWAP1 DUP2 ADD PUSH1 0x40 MSTORE DUP1 SWAP3 SWAP2 SWAP1 DUP2 DUP2 MSTORE PUSH1 0x20 ADD DUP3 DUP1 SLOAD PUSH2 0x2F8 SWAP1 PUSH2 0xBB7 JUMP JUMPDEST DUP1 ISZERO PUSH2 0x345 JUMPI DUP1 PUSH1 0x1F LT PUSH2 0x31A JUMPI PUSH2 0x100 DUP1 DUP4 SLOAD DIV MUL DUP4 MSTORE SWAP2 PUSH1 0x20 ADD SWAP2 PUSH2 0x345 JUMP JUMPDEST DUP3 ADD SWAP2 SWAP1 PUSH1 0x0 MSTORE PUSH1 0x20 PUSH1 0x0 KECCAK256 SWAP1 JUMPDEST DUP2 SLOAD DUP2 MSTORE SWAP1 PUSH1 0x1 ADD SWAP1 PUSH1 0x20 ADD DUP1 DUP4 GT PUSH2 0x328 JUMPI DUP3 SWAP1 SUB PUSH1 0x1F AND DUP3 ADD SWAP2 JUMPDEST POP POP POP POP POP DUP2 JUMP JUMPDEST PUSH1 0x0 PUSH1 0x1 PUSH1 0x0 SWAP1 SLOAD SWAP1 PUSH2 0x100 EXP SWAP1 DIV PUSH20 0xFFFFFFFFFFFFFFFFFFFFFFFFFFFFFFFFFFFFFFFF AND PUSH20 0xFFFFFFFFFFFFFFFFFFFFFFFFFFFFFFFFFFFFFFFF AND PUSH4 0xDD62ED3E ADDRESS PUSH1 0x0 DUP1 SLOAD SWAP1 PUSH2 0x100 EXP SWAP1 DIV PUSH20 0xFFFFFFFFFFFFFFFFFFFFFFFFFFFFFFFFFFFFFFFF AND PUSH1 0x40 MLOAD DUP4 PUSH4 0xFFFFFFFF AND PUSH1 0xE0 SHL DUP2 MSTORE PUSH1 0x4 ADD PUSH2 0x3CC SWAP3 SWAP2 SWAP1 PUSH2 0xC09 JUMP JUMPDEST PUSH1 0x20 PUSH1 0x40 MLOAD DUP1 DUP4 SUB DUP2 DUP7 GAS STATICCALL ISZERO DUP1 ISZERO PUSH2 0x3E9 JUMPI RETURNDATASIZE PUSH1 0x0 DUP1 RETURNDATACOPY RETURNDATASIZE PUSH1 0x0 REVERT JUMPDEST POP POP POP POP PUSH1 0x40 MLOAD RETURNDATASIZE PUSH1 0x1F NOT PUSH1 0x1F DUP3 ADD AND DUP3 ADD DUP1 PUSH1 0x40 MSTORE POP DUP2 ADD SWAP1 PUSH2 0x40D SWAP2 SWAP1 PUSH2 0xC47 JUMP JUMPDEST SWAP1 POP PUSH1 0x0 DUP2 SUB PUSH2 0x4F9 JUMPI PUSH1 0x1 PUSH1 0x0 SWAP1 SLOAD SWAP1 PUSH2 0x100 EXP SWAP1 DIV PUSH20 0xFFFFFFFFFFFFFFFFFFFFFFFFFFFFFFFFFFFFFFFF AND PUSH20 0xFFFFFFFFFFFFFFFFFFFFFFFFFFFFFFFFFFFFFFFF AND PUSH4 0x95EA7B3 PUSH1 0x0 DUP1 SLOAD SWAP1 PUSH2 0x100 EXP SWAP1 DIV PUSH20 0xFFFFFFFFFFFFFFFFFFFFFFFFFFFFFFFFFFFFFFFF AND PUSH32 0xFFFFFFFFFFFFFFFFFFFFFFFFFFFFFFFFFFFFFFFFFFFFFFFFFFFFFFFFFFFFFFFF PUSH1 0x40 MLOAD DUP4 PUSH4 0xFFFFFFFF AND PUSH1 0xE0 SHL DUP2 MSTORE PUSH1 0x4 ADD PUSH2 0x4B4 SWAP3 SWAP2 SWAP1 PUSH2 0xC74 JUMP JUMPDEST PUSH1 0x20 PUSH1 0x40 MLOAD DUP1 DUP4 SUB DUP2 PUSH1 0x0 DUP8 GAS CALL ISZERO DUP1 ISZERO PUSH2 0x4D3 JUMPI RETURNDATASIZE PUSH1 0x0 DUP1 RETURNDATACOPY RETURNDATASIZE PUSH1 0x0 REVERT JUMPDEST POP POP POP POP PUSH1 0x40 MLOAD RETURNDATASIZE PUSH1 0x1F NOT PUSH1 0x1F DUP3 ADD AND DUP3 ADD DUP1 PUSH1 0x40 MSTORE POP DUP2 ADD SWAP1 PUSH2 0x4F7 SWAP2 SWAP1 PUSH2 0xCD5 JUMP JUMPDEST POP JUMPDEST PUSH1 0x0 DUP1 SLOAD SWAP1 PUSH2 0x100 EXP SWAP1 DIV PUSH20 0xFFFFFFFFFFFFFFFFFFFFFFFFFFFFFFFFFFFFFFFF AND PUSH20 0xFFFFFFFFFFFFFFFFFFFFFFFFFFFFFFFFFFFFFFFF AND PUSH4 0x57285BA5 DUP6 DUP6 DUP6 PUSH1 0x40 MLOAD DUP5 PUSH4 0xFFFFFFFF AND PUSH1 0xE0 SHL DUP2 MSTORE PUSH1 0x4 ADD PUSH2 0x556 SWAP4 SWAP3 SWAP2 SWAP1 PUSH2 0xD02 JUMP JUMPDEST PUSH1 0x20 PUSH1 0x40 MLOAD DUP1 DUP4 SUB DUP2 PUSH1 0x0 DUP8 GAS CALL ISZERO DUP1 ISZERO PUSH2 0x575 JUMPI RETURNDATASIZE PUSH1 0x0 DUP1 RETURNDATACOPY RETURNDATASIZE PUSH1 0x0 REVERT JUMPDEST POP POP POP POP PUSH1 0x40 MLOAD RETURNDATASIZE PUSH1 0x1F NOT PUSH1 0x1F DUP3 ADD AND DUP3 ADD DUP1 PUSH1 0x40 MSTORE POP DUP2 ADD SWAP1 PUSH2 0x599 SWAP2 SWAP1 PUSH2 0xC47 JUMP JUMPDEST POP POP POP POP POP JUMP JUMPDEST PUSH1 0x0 DUP1 SLOAD SWAP1 PUSH2 0x100 EXP SWAP1 DIV PUSH20 0xFFFFFFFFFFFFFFFFFFFFFFFFFFFFFFFFFFFFFFFF AND PUSH20 0xFFFFFFFFFFFFFFFFFFFFFFFFFFFFFFFFFFFFFFFF AND CALLER PUSH20 0xFFFFFFFFFFFFFFFFFFFFFFFFFFFFFFFFFFFFFFFF AND EQ PUSH2 0x62E JUMPI PUSH1 0x40 MLOAD PUSH32 0x8C379A000000000000000000000000000000000000000000000000000000000 DUP2 MSTORE PUSH1 0x4 ADD PUSH2 0x625 SWAP1 PUSH2 0xD9A JUMP JUMPDEST PUSH1 0x40 MLOAD DUP1 SWAP2 SUB SWAP1 REVERT JUMPDEST PUSH1 0x0 DUP1 PUSH1 0x0 DUP1 DUP6 DUP6 DUP2 ADD SWAP1 PUSH2 0x643 SWAP2 SWAP1 PUSH2 0xDBA JUMP JUMPDEST SWAP4 POP SWAP4 POP SWAP4 POP SWAP4 POP DUP4 PUSH1 0x2 SWAP1 DUP2 PUSH2 0x65A SWAP2 SWAP1 PUSH2 0x1017 JUMP JUMPDEST POP DUP3 PUSH1 0x3 SWAP1 DUP2 PUSH2 0x66A SWAP2 SWAP1 PUSH2 0x1017 JUMP JUMPDEST POP DUP2 PUSH1 0x4 DUP2 SWAP1 SSTORE POP DUP1 PUSH1 0x5 SWAP1 DUP2 PUSH2 0x681 SWAP2 SWAP1 PUSH2 0x1017 JUMP JUMPDEST POP PUSH32 0x2C2A2AE88B131AECB610B559AEE45030DF628CF5169FF5F08F0B90271972CC5B DUP8 DUP6 DUP6 DUP6 DUP6 PUSH1 0x40 MLOAD PUSH2 0x6B9 SWAP6 SWAP5 SWAP4 SWAP3 SWAP2 SWAP1 PUSH2 0x10E9 JUMP JUMPDEST PUSH1 0x40 MLOAD DUP1 SWAP2 SUB SWAP1 LOG1 POP POP POP POP POP POP POP JUMP JUMPDEST PUSH1 0x1 PUSH1 0x0 SWAP1 SLOAD SWAP1 PUSH2 0x100 EXP SWAP1 DIV PUSH20 0xFFFFFFFFFFFFFFFFFFFFFFFFFFFFFFFFFFFFFFFF AND DUP2 JUMP JUMPDEST PUSH1 0x0 DUP2 SWAP1 POP SWAP2 SWAP1 POP JUMP JUMPDEST PUSH2 0x703 DUP2 PUSH2 0x6F0 JUMP JUMPDEST DUP3 MSTORE POP POP JUMP JUMPDEST PUSH1 0x0 PUSH1 0x20 DUP3 ADD SWAP1 POP PUSH2 0x71E PUSH1 0x0 DUP4 ADD DUP5 PUSH2 0x6FA JUMP JUMPDEST SWAP3 SWAP2 POP POP JUMP JUMPDEST PUSH1 0x0 DUP2 MLOAD SWAP1 POP SWAP2 SWAP1 POP JUMP JUMPDEST PUSH1 0x0 DUP3 DUP3 MSTORE PUSH1 0x20 DUP3 ADD SWAP1 POP SWAP3 SWAP2 POP POP JUMP JUMPDEST PUSH1 0x0 JUMPDEST DUP4 DUP2 LT ISZERO PUSH2 0x75E JUMPI DUP1 DUP3 ADD MLOAD DUP2 DUP5 ADD MSTORE PUSH1 0x20 DUP2 ADD SWAP1 POP PUSH2 0x743 JUMP JUMPDEST PUSH1 0x0 DUP5 DUP5 ADD MSTORE POP POP POP POP JUMP JUMPDEST PUSH1 0x0 PUSH1 0x1F NOT PUSH1 0x1F DUP4 ADD AND SWAP1 POP SWAP2 SWAP1 POP JUMP JUMPDEST PUSH1 0x0 PUSH2 0x786 DUP3 PUSH2 0x724 JUMP JUMPDEST PUSH2 0x790 DUP2 DUP6 PUSH2 0x72F JUMP JUMPDEST SWAP4 POP PUSH2 0x7A0 DUP2 DUP6 PUSH1 0x20 DUP7 ADD PUSH2 0x740 JUMP JUMPDEST PUSH2 0x7A9 DUP2 PUSH2 0x76A JUMP JUMPDEST DUP5 ADD SWAP2 POP POP SWAP3 SWAP2 POP POP JUMP JUMPDEST PUSH1 0x0 PUSH1 0x20 DUP3 ADD SWAP1 POP DUP2 DUP2 SUB PUSH1 0x0 DUP4 ADD MSTORE PUSH2 0x7CE DUP2 DUP5 PUSH2 0x77B JUMP JUMPDEST SWAP1 POP SWAP3 SWAP2 POP POP JUMP JUMPDEST PUSH1 0x0 PUSH20 0xFFFFFFFFFFFFFFFFFFFFFFFFFFFFFFFFFFFFFFFF DUP3 AND SWAP1 POP SWAP2 SWAP1 POP JUMP JUMPDEST PUSH1 0x0 DUP2 SWAP1 POP SWAP2 SWAP1 POP JUMP JUMPDEST PUSH1 0x0 PUSH2 0x81B PUSH2 0x816 PUSH2 0x811 DUP5 PUSH2 0x7D6 JUMP JUMPDEST PUSH2 0x7F6 JUMP JUMPDEST PUSH2 0x7D6 JUMP JUMPDEST SWAP1 POP SWAP2 SWAP1 POP JUMP JUMPDEST PUSH1 0x0 PUSH2 0x82D DUP3 PUSH2 0x800 JUMP JUMPDEST SWAP1 POP SWAP2 SWAP1 POP JUMP JUMPDEST PUSH1 0x0 PUSH2 0x83F DUP3 PUSH2 0x822 JUMP JUMPDEST SWAP1 POP SWAP2 SWAP1 POP JUMP JUMPDEST PUSH2 0x84F DUP2 PUSH2 0x834 JUMP JUMPDEST DUP3 MSTORE POP POP JUMP JUMPDEST PUSH1 0x0 PUSH1 0x20 DUP3 ADD SWAP1 POP PUSH2 0x86A PUSH1 0x0 DUP4 ADD DUP5 PUSH2 0x846 JUMP JUMPDEST SWAP3 SWAP2 POP POP JUMP JUMPDEST PUSH1 0x0 PUSH1 0x40 MLOAD SWAP1 POP SWAP1 JUMP JUMPDEST PUSH1 0x0 DUP1 REVERT JUMPDEST PUSH1 0x0 DUP1 REVERT JUMPDEST PUSH1 0x0 DUP1 REVERT JUMPDEST PUSH1 0x0 DUP1 REVERT JUMPDEST PUSH32 0x4E487B7100000000000000000000000000000000000000000000000000000000 PUSH1 0x0 MSTORE PUSH1 0x41 PUSH1 0x4 MSTORE PUSH1 0x24 PUSH1 0x0 REVERT JUMPDEST PUSH2 0x8C6 DUP3 PUSH2 0x76A JUMP JUMPDEST DUP2 ADD DUP2 DUP2 LT PUSH8 0xFFFFFFFFFFFFFFFF DUP3 GT OR ISZERO PUSH2 0x8E5 JUMPI PUSH2 0x8E4 PUSH2 0x88E JUMP JUMPDEST JUMPDEST DUP1 PUSH1 0x40 MSTORE POP POP POP JUMP JUMPDEST PUSH1 0x0 PUSH2 0x8F8 PUSH2 0x870 JUMP JUMPDEST SWAP1 POP PUSH2 0x904 DUP3 DUP3 PUSH2 0x8BD JUMP JUMPDEST SWAP2 SWAP1 POP JUMP JUMPDEST PUSH1 0x0 PUSH8 0xFFFFFFFFFFFFFFFF DUP3 GT ISZERO PUSH2 0x924 JUMPI PUSH2 0x923 PUSH2 0x88E JUMP JUMPDEST JUMPDEST PUSH2 0x92D DUP3 PUSH2 0x76A JUMP JUMPDEST SWAP1 POP PUSH1 0x20 DUP2 ADD SWAP1 POP SWAP2 SWAP1 POP JUMP JUMPDEST DUP3 DUP2 DUP4 CALLDATACOPY PUSH1 0x0 DUP4 DUP4 ADD MSTORE POP POP POP JUMP JUMPDEST PUSH1 0x0 PUSH2 0x95C PUSH2 0x957 DUP5 PUSH2 0x909 JUMP JUMPDEST PUSH2 0x8EE JUMP JUMPDEST SWAP1 POP DUP3 DUP2 MSTORE PUSH1 0x20 DUP2 ADD DUP5 DUP5 DUP5 ADD GT ISZERO PUSH2 0x978 JUMPI PUSH2 0x977 PUSH2 0x889 JUMP JUMPDEST JUMPDEST PUSH2 0x983 DUP5 DUP3 DUP6 PUSH2 0x93A JUMP JUMPDEST POP SWAP4 SWAP3 POP POP POP JUMP JUMPDEST PUSH1 0x0 DUP3 PUSH1 0x1F DUP4 ADD SLT PUSH2 0x9A0 JUMPI PUSH2 0x99F PUSH2 0x884 JUMP JUMPDEST JUMPDEST DUP2 CALLDATALOAD PUSH2 0x9B0 DUP5 DUP3 PUSH1 0x20 DUP7 ADD PUSH2 0x949 JUMP JUMPDEST SWAP2 POP POP SWAP3 SWAP2 POP POP JUMP JUMPDEST PUSH1 0x0 DUP1 PUSH1 0x0 PUSH1 0x60 DUP5 DUP7 SUB SLT ISZERO PUSH2 0x9D2 JUMPI PUSH2 0x9D1 PUSH2 0x87A JUMP JUMPDEST JUMPDEST PUSH1 0x0 DUP5 ADD CALLDATALOAD PUSH8 0xFFFFFFFFFFFFFFFF DUP2 GT ISZERO PUSH2 0x9F0 JUMPI PUSH2 0x9EF PUSH2 0x87F JUMP JUMPDEST JUMPDEST PUSH2 0x9FC DUP7 DUP3 DUP8 ADD PUSH2 0x98B JUMP JUMPDEST SWAP4 POP POP PUSH1 0x20 DUP5 ADD CALLDATALOAD PUSH8 0xFFFFFFFFFFFFFFFF DUP2 GT ISZERO PUSH2 0xA1D JUMPI PUSH2 0xA1C PUSH2 0x87F JUMP JUMPDEST JUMPDEST PUSH2 0xA29 DUP7 DUP3 DUP8 ADD PUSH2 0x98B JUMP JUMPDEST SWAP3 POP POP PUSH1 0x40 DUP5 ADD CALLDATALOAD PUSH8 0xFFFFFFFFFFFFFFFF DUP2 GT ISZERO PUSH2 0xA4A JUMPI PUSH2 0xA49 PUSH2 0x87F JUMP JUMPDEST JUMPDEST PUSH2 0xA56 DUP7 DUP3 DUP8 ADD PUSH2 0x98B JUMP JUMPDEST SWAP2 POP POP SWAP3 POP SWAP3 POP SWAP3 JUMP JUMPDEST PUSH2 0xA69 DUP2 PUSH2 0x6F0 JUMP JUMPDEST DUP2 EQ PUSH2 0xA74 JUMPI PUSH1 0x0 DUP1 REVERT JUMPDEST POP JUMP JUMPDEST PUSH1 0x0 DUP2 CALLDATALOAD SWAP1 POP PUSH2 0xA86 DUP2 PUSH2 0xA60 JUMP JUMPDEST SWAP3 SWAP2 POP POP JUMP JUMPDEST PUSH1 0x0 DUP1 REVERT JUMPDEST PUSH1 0x0 DUP1 REVERT JUMPDEST PUSH1 0x0 DUP1 DUP4 PUSH1 0x1F DUP5 ADD SLT PUSH2 0xAAC JUMPI PUSH2 0xAAB PUSH2 0x884 JUMP JUMPDEST JUMPDEST DUP3 CALLDATALOAD SWAP1 POP PUSH8 0xFFFFFFFFFFFFFFFF DUP2 GT ISZERO PUSH2 0xAC9 JUMPI PUSH2 0xAC8 PUSH2 0xA8C JUMP JUMPDEST JUMPDEST PUSH1 0x20 DUP4 ADD SWAP2 POP DUP4 PUSH1 0x1 DUP3 MUL DUP4 ADD GT ISZERO PUSH2 0xAE5 JUMPI PUSH2 0xAE4 PUSH2 0xA91 JUMP JUMPDEST JUMPDEST SWAP3 POP SWAP3 SWAP1 POP JUMP JUMPDEST PUSH1 0x0 DUP1 PUSH1 0x0 PUSH1 0x40 DUP5 DUP7 SUB SLT ISZERO PUSH2 0xB05 JUMPI PUSH2 0xB04 PUSH2 0x87A JUMP JUMPDEST JUMPDEST PUSH1 0x0 PUSH2 0xB13 DUP7 DUP3 DUP8 ADD PUSH2 0xA77 JUMP JUMPDEST SWAP4 POP POP PUSH1 0x20 DUP5 ADD CALLDATALOAD PUSH8 0xFFFFFFFFFFFFFFFF DUP2 GT ISZERO PUSH2 0xB34 JUMPI PUSH2 0xB33 PUSH2 0x87F JUMP JUMPDEST JUMPDEST PUSH2 0xB40 DUP7 DUP3 DUP8 ADD PUSH2 0xA96 JUMP JUMPDEST SWAP3 POP SWAP3 POP POP SWAP3 POP SWAP3 POP SWAP3 JUMP JUMPDEST PUSH1 0x0 PUSH2 0xB57 DUP3 PUSH2 0x822 JUMP JUMPDEST SWAP1 POP SWAP2 SWAP1 POP JUMP JUMPDEST PUSH2 0xB67 DUP2 PUSH2 0xB4C JUMP JUMPDEST DUP3 MSTORE POP POP JUMP JUMPDEST PUSH1 0x0 PUSH1 0x20 DUP3 ADD SWAP1 POP PUSH2 0xB82 PUSH1 0x0 DUP4 ADD DUP5 PUSH2 0xB5E JUMP JUMPDEST SWAP3 SWAP2 POP POP JUMP JUMPDEST PUSH32 0x4E487B7100000000000000000000000000000000000000000000000000000000 PUSH1 0x0 MSTORE PUSH1 0x22 PUSH1 0x4 MSTORE PUSH1 0x24 PUSH1 0x0 REVERT JUMPDEST PUSH1 0x0 PUSH1 0x2 DUP3 DIV SWAP1 POP PUSH1 0x1 DUP3 AND DUP1 PUSH2 0xBCF JUMPI PUSH1 0x7F DUP3 AND SWAP2 POP JUMPDEST PUSH1 0x20 DUP3 LT DUP2 SUB PUSH2 0xBE2 JUMPI PUSH2 0xBE1 PUSH2 0xB88 JUMP JUMPDEST JUMPDEST POP SWAP2 SWAP1 POP JUMP JUMPDEST PUSH1 0x0 PUSH2 0xBF3 DUP3 PUSH2 0x7D6 JUMP JUMPDEST SWAP1 POP SWAP2 SWAP1 POP JUMP JUMPDEST PUSH2 0xC03 DUP2 PUSH2 0xBE8 JUMP JUMPDEST DUP3 MSTORE POP POP JUMP JUMPDEST PUSH1 0x0 PUSH1 0x40 DUP3 ADD SWAP1 POP PUSH2 0xC1E PUSH1 0x0 DUP4 ADD DUP6 PUSH2 0xBFA JUMP JUMPDEST PUSH2 0xC2B PUSH1 0x20 DUP4 ADD DUP5 PUSH2 0xBFA JUMP JUMPDEST SWAP4 SWAP3 POP POP POP JUMP JUMPDEST PUSH1 0x0 DUP2 MLOAD SWAP1 POP PUSH2 0xC41 DUP2 PUSH2 0xA60 JUMP JUMPDEST SWAP3 SWAP2 POP POP JUMP JUMPDEST PUSH1 0x0 PUSH1 0x20 DUP3 DUP5 SUB SLT ISZERO PUSH2 0xC5D JUMPI PUSH2 0xC5C PUSH2 0x87A JUMP JUMPDEST JUMPDEST PUSH1 0x0 PUSH2 0xC6B DUP5 DUP3 DUP6 ADD PUSH2 0xC32 JUMP JUMPDEST SWAP2 POP POP SWAP3 SWAP2 POP POP JUMP JUMPDEST PUSH1 0x0 PUSH1 0x40 DUP3 ADD SWAP1 POP PUSH2 0xC89 PUSH1 0x0 DUP4 ADD DUP6 PUSH2 0xBFA JUMP JUMPDEST PUSH2 0xC96 PUSH1 0x20 DUP4 ADD DUP5 PUSH2 0x6FA JUMP JUMPDEST SWAP4 SWAP3 POP POP POP JUMP JUMPDEST PUSH1 0x0 DUP2 ISZERO ISZERO SWAP1 POP SWAP2 SWAP1 POP JUMP JUMPDEST PUSH2 0xCB2 DUP2 PUSH2 0xC9D JUMP JUMPDEST DUP2 EQ PUSH2 0xCBD JUMPI PUSH1 0x0 DUP1 REVERT JUMPDEST POP JUMP JUMPDEST PUSH1 0x0 DUP2 MLOAD SWAP1 POP PUSH2 0xCCF DUP2 PUSH2 0xCA9 JUMP JUMPDEST SWAP3 SWAP2 POP POP JUMP JUMPDEST PUSH1 0x0 PUSH1 0x20 DUP3 DUP5 SUB SLT ISZERO PUSH2 0xCEB JUMPI PUSH2 0xCEA PUSH2 0x87A JUMP JUMPDEST JUMPDEST PUSH1 0x0 PUSH2 0xCF9 DUP5 DUP3 DUP6 ADD PUSH2 0xCC0 JUMP JUMPDEST SWAP2 POP POP SWAP3 SWAP2 POP POP JUMP JUMPDEST PUSH1 0x0 PUSH1 0x60 DUP3 ADD SWAP1 POP DUP2 DUP2 SUB PUSH1 0x0 DUP4 ADD MSTORE PUSH2 0xD1C DUP2 DUP7 PUSH2 0x77B JUMP JUMPDEST SWAP1 POP DUP2 DUP2 SUB PUSH1 0x20 DUP4 ADD MSTORE PUSH2 0xD30 DUP2 DUP6 PUSH2 0x77B JUMP JUMPDEST SWAP1 POP DUP2 DUP2 SUB PUSH1 0x40 DUP4 ADD MSTORE PUSH2 0xD44 DUP2 DUP5 PUSH2 0x77B JUMP JUMPDEST SWAP1 POP SWAP5 SWAP4 POP POP POP POP JUMP JUMPDEST PUSH32 0x4F6E6C79206F7261636C652063616E2063616C6C207468697300000000000000 PUSH1 0x0 DUP3 ADD MSTORE POP JUMP JUMPDEST PUSH1 0x0 PUSH2 0xD84 PUSH1 0x19 DUP4 PUSH2 0x72F JUMP JUMPDEST SWAP2 POP PUSH2 0xD8F DUP3 PUSH2 0xD4E JUMP JUMPDEST PUSH1 0x20 DUP3 ADD SWAP1 POP SWAP2 SWAP1 POP JUMP JUMPDEST PUSH1 0x0 PUSH1 0x20 DUP3 ADD SWAP1 POP DUP2 DUP2 SUB PUSH1 0x0 DUP4 ADD MSTORE PUSH2 0xDB3 DUP2 PUSH2 0xD77 JUMP JUMPDEST SWAP1 POP SWAP2 SWAP1 POP JUMP JUMPDEST PUSH1 0x0 DUP1 PUSH1 0x0 DUP1 PUSH1 0x80 DUP6 DUP8 SUB SLT ISZERO PUSH2 0xDD4 JUMPI PUSH2 0xDD3 PUSH2 0x87A JUMP JUMPDEST JUMPDEST PUSH1 0x0 DUP6 ADD CALLDATALOAD PUSH8 0xFFFFFFFFFFFFFFFF DUP2 GT ISZERO PUSH2 0xDF2 JUMPI PUSH2 0xDF1 PUSH2 0x87F JUMP JUMPDEST JUMPDEST PUSH2 0xDFE DUP8 DUP3 DUP9 ADD PUSH2 0x98B JUMP JUMPDEST SWAP5 POP POP PUSH1 0x20 DUP6 ADD CALLDATALOAD PUSH8 0xFFFFFFFFFFFFFFFF DUP2 GT ISZERO PUSH2 0xE1F JUMPI PUSH2 0xE1E PUSH2 0x87F JUMP JUMPDEST JUMPDEST PUSH2 0xE2B DUP8 DUP3 DUP9 ADD PUSH2 0x98B JUMP JUMPDEST SWAP4 POP POP PUSH1 0x40 PUSH2 0xE3C DUP8 DUP3 DUP9 ADD PUSH2 0xA77 JUMP JUMPDEST SWAP3 POP POP PUSH1 0x60 DUP6 ADD CALLDATALOAD PUSH8 0xFFFFFFFFFFFFFFFF DUP2 GT ISZERO PUSH2 0xE5D JUMPI PUSH2 0xE5C PUSH2 0x87F JUMP JUMPDEST JUMPDEST PUSH2 0xE69 DUP8 DUP3 DUP9 ADD PUSH2 0x98B JUMP JUMPDEST SWAP2 POP POP SWAP3 SWAP6 SWAP2 SWAP5 POP SWAP3 POP JUMP JUMPDEST PUSH1 0x0 DUP2 SWAP1 POP DUP2 PUSH1 0x0 MSTORE PUSH1 0x20 PUSH1 0x0 KECCAK256 SWAP1 POP SWAP2 SWAP1 POP JUMP JUMPDEST PUSH1 0x0 PUSH1 0x20 PUSH1 0x1F DUP4 ADD DIV SWAP1 POP SWAP2 SWAP1 POP JUMP JUMPDEST PUSH1 0x0 DUP3 DUP3 SHL SWAP1 POP SWAP3 SWAP2 POP POP JUMP JUMPDEST PUSH1 0x0 PUSH1 0x8 DUP4 MUL PUSH2 0xED7 PUSH32 0xFFFFFFFFFFFFFFFFFFFFFFFFFFFFFFFFFFFFFFFFFFFFFFFFFFFFFFFFFFFFFFFF DUP3 PUSH2 0xE9A JUMP JUMPDEST PUSH2 0xEE1 DUP7 DUP4 PUSH2 0xE9A JUMP JUMPDEST SWAP6 POP DUP1 NOT DUP5 AND SWAP4 POP DUP1 DUP7 AND DUP5 OR SWAP3 POP POP POP SWAP4 SWAP3 POP POP POP JUMP JUMPDEST PUSH1 0x0 PUSH2 0xF14 PUSH2 0xF0F PUSH2 0xF0A DUP5 PUSH2 0x6F0 JUMP JUMPDEST PUSH2 0x7F6 JUMP JUMPDEST PUSH2 0x6F0 JUMP JUMPDEST SWAP1 POP SWAP2 SWAP1 POP JUMP JUMPDEST PUSH1 0x0 DUP2 SWAP1 POP SWAP2 SWAP1 POP JUMP JUMPDEST PUSH2 0xF2E DUP4 PUSH2 0xEF9 JUMP JUMPDEST PUSH2 0xF42 PUSH2 0xF3A DUP3 PUSH2 0xF1B JUMP JUMPDEST DUP5 DUP5 SLOAD PUSH2 0xEA7 JUMP JUMPDEST DUP3 SSTORE POP POP POP POP JUMP JUMPDEST PUSH1 0x0 SWAP1 JUMP JUMPDEST PUSH2 0xF57 PUSH2 0xF4A JUMP JUMPDEST PUSH2 0xF62 DUP2 DUP5 DUP5 PUSH2 0xF25 JUMP JUMPDEST POP POP POP JUMP JUMPDEST JUMPDEST DUP2 DUP2 LT ISZERO PUSH2 0xF86 JUMPI PUSH2 0xF7B PUSH1 0x0 DUP3 PUSH2 0xF4F JUMP JUMPDEST PUSH1 0x1 DUP2 ADD SWAP1 POP PUSH2 0xF68 JUMP JUMPDEST POP POP JUMP JUMPDEST PUSH1 0x1F DUP3 GT ISZERO PUSH2 0xFCB JUMPI PUSH2 0xF9C DUP2 PUSH2 0xE75 JUMP JUMPDEST PUSH2 0xFA5 DUP5 PUSH2 0xE8A JUMP JUMPDEST DUP2 ADD PUSH1 0x20 DUP6 LT ISZERO PUSH2 0xFB4 JUMPI DUP2 SWAP1 POP JUMPDEST PUSH2 0xFC8 PUSH2 0xFC0 DUP6 PUSH2 0xE8A JUMP JUMPDEST DUP4 ADD DUP3 PUSH2 0xF67 JUMP JUMPDEST POP POP JUMPDEST POP POP POP JUMP JUMPDEST PUSH1 0x0 DUP3 DUP3 SHR SWAP1 POP SWAP3 SWAP2 POP POP JUMP JUMPDEST PUSH1 0x0 PUSH2 0xFEE PUSH1 0x0 NOT DUP5 PUSH1 0x8 MUL PUSH2 0xFD0 JUMP JUMPDEST NOT DUP1 DUP4 AND SWAP2 POP POP SWAP3 SWAP2 POP POP JUMP JUMPDEST PUSH1 0x0 PUSH2 0x1007 DUP4 DUP4 PUSH2 0xFDD JUMP JUMPDEST SWAP2 POP DUP3 PUSH1 0x2 MUL DUP3 OR SWAP1 POP SWAP3 SWAP2 POP POP JUMP JUMPDEST PUSH2 0x1020 DUP3 PUSH2 0x724 JUMP JUMPDEST PUSH8 0xFFFFFFFFFFFFFFFF DUP2 GT ISZERO PUSH2 0x1039 JUMPI PUSH2 0x1038 PUSH2 0x88E JUMP JUMPDEST JUMPDEST PUSH2 0x1043 DUP3 SLOAD PUSH2 0xBB7 JUMP JUMPDEST PUSH2 0x104E DUP3 DUP3 DUP6 PUSH2 0xF8A JUMP JUMPDEST PUSH1 0x0 PUSH1 0x20 SWAP1 POP PUSH1 0x1F DUP4 GT PUSH1 0x1 DUP2 EQ PUSH2 0x1081 JUMPI PUSH1 0x0 DUP5 ISZERO PUSH2 0x106F JUMPI DUP3 DUP8 ADD MLOAD SWAP1 POP JUMPDEST PUSH2 0x1079 DUP6 DUP3 PUSH2 0xFFB JUMP JUMPDEST DUP7 SSTORE POP PUSH2 0x10E1 JUMP JUMPDEST PUSH1 0x1F NOT DUP5 AND PUSH2 0x108F DUP7 PUSH2 0xE75 JUMP JUMPDEST PUSH1 0x0 JUMPDEST DUP3 DUP2 LT ISZERO PUSH2 0x10B7 JUMPI DUP5 DUP10 ADD MLOAD DUP3 SSTORE PUSH1 0x1 DUP3 ADD SWAP2 POP PUSH1 0x20 DUP6 ADD SWAP5 POP PUSH1 0x20 DUP2 ADD SWAP1 POP PUSH2 0x1092 JUMP JUMPDEST DUP7 DUP4 LT ISZERO PUSH2 0x10D4 JUMPI DUP5 DUP10 ADD MLOAD PUSH2 0x10D0 PUSH1 0x1F DUP10 AND DUP3 PUSH2 0xFDD JUMP JUMPDEST DUP4 SSTORE POP JUMPDEST PUSH1 0x1 PUSH1 0x2 DUP9 MUL ADD DUP9 SSTORE POP POP POP JUMPDEST POP POP POP POP POP POP JUMP JUMPDEST PUSH1 0x0 PUSH1 0xA0 DUP3 ADD SWAP1 POP PUSH2 0x10FE PUSH1 0x0 DUP4 ADD DUP9 PUSH2 0x6FA JUMP JUMPDEST DUP2 DUP2 SUB PUSH1 0x20 DUP4 ADD MSTORE PUSH2 0x1110 DUP2 DUP8 PUSH2 0x77B JUMP JUMPDEST SWAP1 POP DUP2 DUP2 SUB PUSH1 0x40 DUP4 ADD MSTORE PUSH2 0x1124 DUP2 DUP7 PUSH2 0x77B JUMP JUMPDEST SWAP1 POP PUSH2 0x1133 PUSH1 0x60 DUP4 ADD DUP6 PUSH2 0x6FA JUMP JUMPDEST DUP2 DUP2 SUB PUSH1 0x80 DUP4 ADD MSTORE PUSH2 0x1145 DUP2 DUP5 PUSH2 0x77B JUMP JUMPDEST SWAP1 POP SWAP7 SWAP6 POP POP POP POP POP POP JUMP INVALID LOG2 PUSH5 0x6970667358 0x22 SLT KECCAK256 0xD1 JUMPI LOG0 DUP9 0xB6 0x4A OR 0xE2 0xF6 PUSH20 0x693A73859FA75C3959B2DA7D0F400C9D82D791B9 LOG2 0xD2 PUSH5 0x736F6C6343 STOP ADDMOD EQ STOP CALLER "},"methodIdentifiers":{"aiToken()":"c8203521","description()":"7284e416","fulfillAiResponse(uint256,bytes)":"bbd75d54","name()":"06fdde03","oracle()":"7dc0d1d0","requestAI(string,string,string)":"adb8e32e","supply()":"047fc9aa","ticker()":"8ba47bdd"}}}}}