{
  "_format": "hh-sol-artifact-1",
  "contractName": "Consumer",
  "sourceName": "contracts/Consumer.sol",
  "abi": [
    {
      "inputs": [
        {
          "internalType": "address",
          "name": "_oracle",
          "type": "address"
        },
        {
          "internalType": "address",
          "name": "_aiToken",
          "type": "address"
        }
      ],
      "stateMutability": "nonpayable",
      "type": "constructor"
    },
    {
      "inputs": [],
      "name": "OnlyOracle",
      "type": "error"
    },
    {
      "anonymous": false,
      "inputs": [
        {
          "indexed": false,
          "internalType": "uint256",
          "name": "requestId",
          "type": "uint256"
        },
        {
          "indexed": false,
          "internalType": "string",
          "name": "ticker",
          "type": "string"
        },
        {
          "indexed": false,
          "internalType": "string",
          "name": "name",
          "type": "string"
        },
        {
          "indexed": false,
          "internalType": "uint256",
          "name": "supply",
          "type": "uint256"
        },
        {
          "indexed": false,
          "internalType": "string",
          "name": "description",
          "type": "string"
        }
      ],
      "name": "ReceivedResponse",
      "type": "event"
    },
    {
      "inputs": [],
      "name": "aiOracle",
      "outputs": [
        {
          "internalType": "contract IAiOracle",
          "name": "",
          "type": "address"
        }
      ],
      "stateMutability": "view",
      "type": "function"
    },
    {
      "inputs": [],
      "name": "aiToken",
      "outputs": [
        {
          "internalType": "contract IERC20",
          "name": "",
          "type": "address"
        }
      ],
      "stateMutability": "view",
      "type": "function"
    },
    {
      "inputs": [],
      "name": "description",
      "outputs": [
        {
          "internalType": "string",
          "name": "",
          "type": "string"
        }
      ],
      "stateMutability": "view",
      "type": "function"
    },
    {
      "inputs": [
        {
          "internalType": "uint256",
          "name": "requestId",
          "type": "uint256"
        },
        {
          "internalType": "bytes",
          "name": "data",
          "type": "bytes"
        }
      ],
      "name": "fulfillAiResponse",
      "outputs": [],
      "stateMutability": "nonpayable",
      "type": "function"
    },
    {
      "inputs": [],
      "name": "name",
      "outputs": [
        {
          "internalType": "string",
          "name": "",
          "type": "string"
        }
      ],
      "stateMutability": "view",
      "type": "function"
    },
    {
      "inputs": [
        {
          "internalType": "string",
          "name": "model",
          "type": "string"
        },
        {
          "internalType": "string",
          "name": "prompt",
          "type": "string"
        },
        {
          "internalType": "string",
          "name": "responseAbi",
          "type": "string"
        }
      ],
      "name": "requestAI",
      "outputs": [],
      "stateMutability": "nonpayable",
      "type": "function"
    },
    {
      "inputs": [],
      "name": "supply",
      "outputs": [
        {
          "internalType": "uint256",
          "name": "",
          "type": "uint256"
        }
      ],
      "stateMutability": "view",
      "type": "function"
    },
    {
      "inputs": [],
      "name": "ticker",
      "outputs": [
        {
          "internalType": "string",
          "name": "",
          "type": "string"
        }
      ],
      "stateMutability": "view",
      "type": "function"
    }
  ],
  "bytecode": "0x60806040523480156200001157600080fd5b50604051620012ac380380620012ac83398181016040528101906200003791906200012c565b81806000806101000a81548173ffffffffffffffffffffffffffffffffffffffff021916908373ffffffffffffffffffffffffffffffffffffffff1602179055505080600160006101000a81548173ffffffffffffffffffffffffffffffffffffffff021916908373ffffffffffffffffffffffffffffffffffffffff160217905550505062000173565b600080fd5b600073ffffffffffffffffffffffffffffffffffffffff82169050919050565b6000620000f482620000c7565b9050919050565b6200010681620000e7565b81146200011257600080fd5b50565b6000815190506200012681620000fb565b92915050565b60008060408385031215620001465762000145620000c2565b5b6000620001568582860162000115565b9250506020620001698582860162000115565b9150509250929050565b61112980620001836000396000f3fe608060405234801561001057600080fd5b50600436106100885760003560e01c80638ba47bdd1161005b5780638ba47bdd14610105578063adb8e32e14610123578063bbd75d541461013f578063c82035211461015b57610088565b8063047fc9aa1461008d57806306fdde03146100ab57806331b221cd146100c95780637284e416146100e7575b600080fd5b610095610179565b6040516100a29190610717565b60405180910390f35b6100b361017f565b6040516100c091906107c2565b60405180910390f35b6100d161020d565b6040516100de9190610863565b60405180910390f35b6100ef610231565b6040516100fc91906107c2565b60405180910390f35b61010d6102bf565b60405161011a91906107c2565b60405180910390f35b61013d600480360381019061013891906109c7565b61034d565b005b61015960048036038101906101549190610afa565b61050b565b005b61016361062c565b6040516101709190610b7b565b60405180910390f35b60045481565b6003805461018c90610bc5565b80601f01602080910402602001604051908101604052809291908181526020018280546101b890610bc5565b80156102055780601f106101da57610100808354040283529160200191610205565b820191906000526020600020905b8154815290600101906020018083116101e857829003601f168201915b505050505081565b60008054906101000a900473ffffffffffffffffffffffffffffffffffffffff1681565b6005805461023e90610bc5565b80601f016020809104026020016040519081016040528092919081815260200182805461026a90610bc5565b80156102b75780601f1061028c576101008083540402835291602001916102b7565b820191906000526020600020905b81548152906001019060200180831161029a57829003601f168201915b505050505081565b600280546102cc90610bc5565b80601f01602080910402602001604051908101604052809291908181526020018280546102f890610bc5565b80156103455780601f1061031a57610100808354040283529160200191610345565b820191906000526020600020905b81548152906001019060200180831161032857829003601f168201915b505050505081565b6000600160009054906101000a900473ffffffffffffffffffffffffffffffffffffffff1673ffffffffffffffffffffffffffffffffffffffff1663dd62ed3e3060008054906101000a900473ffffffffffffffffffffffffffffffffffffffff166040518363ffffffff1660e01b81526004016103cc929190610c17565b602060405180830381865afa1580156103e9573d6000803e3d6000fd5b505050506040513d601f19601f8201168201806040525081019061040d9190610c55565b9050600081036104f957600160009054906101000a900473ffffffffffffffffffffffffffffffffffffffff1673ffffffffffffffffffffffffffffffffffffffff1663095ea7b360008054906101000a900473ffffffffffffffffffffffffffffffffffffffff167fffffffffffffffffffffffffffffffffffffffffffffffffffffffffffffffff6040518363ffffffff1660e01b81526004016104b4929190610c82565b6020604051808303816000875af11580156104d3573d6000803e3d6000fd5b505050506040513d601f19601f820116820180604052508101906104f79190610ce3565b505b610504848484610652565b5050505050565b60008054906101000a900473ffffffffffffffffffffffffffffffffffffffff1673ffffffffffffffffffffffffffffffffffffffff163373ffffffffffffffffffffffffffffffffffffffff1614610590576040517f80fee10500000000000000000000000000000000000000000000000000000000815260040160405180910390fd5b60008060008085858101906105a59190610d10565b935093509350935083600290816105bc9190610f6d565b5082600390816105cc9190610f6d565b508160048190555080600590816105e39190610f6d565b507f2c2a2ae88b131aecb610b559aee45030df628cf5169ff5f08f0b90271972cc5b878585858560405161061b95949392919061103f565b60405180910390a150505050505050565b600160009054906101000a900473ffffffffffffffffffffffffffffffffffffffff1681565b60008060009054906101000a900473ffffffffffffffffffffffffffffffffffffffff1673ffffffffffffffffffffffffffffffffffffffff166357285ba58585856040518463ffffffff1660e01b81526004016106b2939291906110a7565b6020604051808303816000875af11580156106d1573d6000803e3d6000fd5b505050506040513d601f19601f820116820180604052508101906106f59190610c55565b90509392505050565b6000819050919050565b610711816106fe565b82525050565b600060208201905061072c6000830184610708565b92915050565b600081519050919050565b600082825260208201905092915050565b60005b8381101561076c578082015181840152602081019050610751565b60008484015250505050565b6000601f19601f8301169050919050565b600061079482610732565b61079e818561073d565b93506107ae81856020860161074e565b6107b781610778565b840191505092915050565b600060208201905081810360008301526107dc8184610789565b905092915050565b600073ffffffffffffffffffffffffffffffffffffffff82169050919050565b6000819050919050565b600061082961082461081f846107e4565b610804565b6107e4565b9050919050565b600061083b8261080e565b9050919050565b600061084d82610830565b9050919050565b61085d81610842565b82525050565b60006020820190506108786000830184610854565b92915050565b6000604051905090565b600080fd5b600080fd5b600080fd5b600080fd5b7f4e487b7100000000000000000000000000000000000000000000000000000000600052604160045260246000fd5b6108d482610778565b810181811067ffffffffffffffff821117156108f3576108f261089c565b5b80604052505050565b600061090661087e565b905061091282826108cb565b919050565b600067ffffffffffffffff8211156109325761093161089c565b5b61093b82610778565b9050602081019050919050565b82818337600083830152505050565b600061096a61096584610917565b6108fc565b90508281526020810184848401111561098657610985610897565b5b610991848285610948565b509392505050565b600082601f8301126109ae576109ad610892565b5b81356109be848260208601610957565b91505092915050565b6000806000606084860312156109e0576109df610888565b5b600084013567ffffffffffffffff8111156109fe576109fd61088d565b5b610a0a86828701610999565b935050602084013567ffffffffffffffff811115610a2b57610a2a61088d565b5b610a3786828701610999565b925050604084013567ffffffffffffffff811115610a5857610a5761088d565b5b610a6486828701610999565b9150509250925092565b610a77816106fe565b8114610a8257600080fd5b50565b600081359050610a9481610a6e565b92915050565b600080fd5b600080fd5b60008083601f840112610aba57610ab9610892565b5b8235905067ffffffffffffffff811115610ad757610ad6610a9a565b5b602083019150836001820283011115610af357610af2610a9f565b5b9250929050565b600080600060408486031215610b1357610b12610888565b5b6000610b2186828701610a85565b935050602084013567ffffffffffffffff811115610b4257610b4161088d565b5b610b4e86828701610aa4565b92509250509250925092565b6000610b6582610830565b9050919050565b610b7581610b5a565b82525050565b6000602082019050610b906000830184610b6c565b92915050565b7f4e487b7100000000000000000000000000000000000000000000000000000000600052602260045260246000fd5b60006002820490506001821680610bdd57607f821691505b602082108103610bf057610bef610b96565b5b50919050565b6000610c01826107e4565b9050919050565b610c1181610bf6565b82525050565b6000604082019050610c2c6000830185610c08565b610c396020830184610c08565b9392505050565b600081519050610c4f81610a6e565b92915050565b600060208284031215610c6b57610c6a610888565b5b6000610c7984828501610c40565b91505092915050565b6000604082019050610c976000830185610c08565b610ca46020830184610708565b9392505050565b60008115159050919050565b610cc081610cab565b8114610ccb57600080fd5b50565b600081519050610cdd81610cb7565b92915050565b600060208284031215610cf957610cf8610888565b5b6000610d0784828501610cce565b91505092915050565b60008060008060808587031215610d2a57610d29610888565b5b600085013567ffffffffffffffff811115610d4857610d4761088d565b5b610d5487828801610999565b945050602085013567ffffffffffffffff811115610d7557610d7461088d565b5b610d8187828801610999565b9350506040610d9287828801610a85565b925050606085013567ffffffffffffffff811115610db357610db261088d565b5b610dbf87828801610999565b91505092959194509250565b60008190508160005260206000209050919050565b60006020601f8301049050919050565b600082821b905092915050565b600060088302610e2d7fffffffffffffffffffffffffffffffffffffffffffffffffffffffffffffffff82610df0565b610e378683610df0565b95508019841693508086168417925050509392505050565b6000610e6a610e65610e60846106fe565b610804565b6106fe565b9050919050565b6000819050919050565b610e8483610e4f565b610e98610e9082610e71565b848454610dfd565b825550505050565b600090565b610ead610ea0565b610eb8818484610e7b565b505050565b5b81811015610edc57610ed1600082610ea5565b600181019050610ebe565b5050565b601f821115610f2157610ef281610dcb565b610efb84610de0565b81016020851015610f0a578190505b610f1e610f1685610de0565b830182610ebd565b50505b505050565b600082821c905092915050565b6000610f4460001984600802610f26565b1980831691505092915050565b6000610f5d8383610f33565b9150826002028217905092915050565b610f7682610732565b67ffffffffffffffff811115610f8f57610f8e61089c565b5b610f998254610bc5565b610fa4828285610ee0565b600060209050601f831160018114610fd75760008415610fc5578287015190505b610fcf8582610f51565b865550611037565b601f198416610fe586610dcb565b60005b8281101561100d57848901518255600182019150602085019450602081019050610fe8565b8683101561102a5784890151611026601f891682610f33565b8355505b6001600288020188555050505b505050505050565b600060a0820190506110546000830188610708565b81810360208301526110668187610789565b9050818103604083015261107a8186610789565b90506110896060830185610708565b818103608083015261109b8184610789565b90509695505050505050565b600060608201905081810360008301526110c18186610789565b905081810360208301526110d58185610789565b905081810360408301526110e98184610789565b905094935050505056fea2646970667358221220762ede2d87c2cd9606a8d4ebe669372c1cdb44e6f57bff5398ed73e259d9680f64736f6c63430008140033",
  "linkReferences": {},
  "deployedLinkReferences": {}
}